{
  "address": "0x25281C473698Bb7593C56Ee1b4BedB116DC82939",
  "abi": [
    {
      "inputs": [
        {
          "internalType": "address",
          "name": "hub",
          "type": "address"
        },
        {
          "internalType": "address",
          "name": "actionModule",
          "type": "address"
        },
        {
          "internalType": "address",
          "name": "moduleRegistry",
          "type": "address"
        },
        {
          "internalType": "address",
          "name": "moduleOwner",
          "type": "address"
        }
      ],
      "stateMutability": "nonpayable",
      "type": "constructor"
    },
    {
      "inputs": [],
      "name": "CollectExpired",
      "type": "error"
    },
    {
      "inputs": [],
      "name": "GateParamsInvalid",
      "type": "error"
    },
    {
      "inputs": [],
      "name": "InitParamsInvalid",
      "type": "error"
    },
    {
      "inputs": [],
      "name": "InvalidRecipientSplits",
      "type": "error"
    },
    {
      "inputs": [],
      "name": "MintLimitExceeded",
      "type": "error"
    },
    {
      "inputs": [],
      "name": "ModuleDataMismatch",
      "type": "error"
    },
    {
      "inputs": [],
      "name": "NotActionModule",
      "type": "error"
    },
    {
      "inputs": [],
      "name": "NotEnoughBalance",
      "type": "error"
    },
    {
      "inputs": [],
      "name": "NotFollowing",
      "type": "error"
    },
    {
      "inputs": [],
      "name": "RecipientSplitCannotBeZero",
      "type": "error"
    },
    {
      "anonymous": false,
      "inputs": [],
      "name": "ModuleRegistered",
      "type": "event"
    },
    {
      "anonymous": false,
      "inputs": [
        {
          "indexed": true,
          "internalType": "address",
          "name": "previousOwner",
          "type": "address"
        },
        {
          "indexed": true,
          "internalType": "address",
          "name": "newOwner",
          "type": "address"
        }
      ],
      "name": "OwnershipTransferred",
      "type": "event"
    },
    {
      "anonymous": false,
      "inputs": [
        {
          "indexed": true,
          "internalType": "uint256",
          "name": "profileId",
          "type": "uint256"
        },
        {
          "indexed": true,
          "internalType": "uint256",
          "name": "pubId",
          "type": "uint256"
        },
        {
          "indexed": false,
          "internalType": "address",
          "name": "tokenAddress",
          "type": "address"
        },
        {
          "indexed": false,
          "internalType": "uint256",
          "name": "minThreshold",
          "type": "uint256"
        }
      ],
      "name": "TokenGatedCollectCreated",
      "type": "event"
    },
    {
      "inputs": [],
      "name": "ACTION_MODULE",
      "outputs": [
        {
          "internalType": "address",
          "name": "",
          "type": "address"
        }
      ],
      "stateMutability": "view",
      "type": "function"
    },
    {
      "inputs": [],
      "name": "MODULE_REGISTRY",
      "outputs": [
        {
          "internalType": "contract IModuleRegistry",
          "name": "",
          "type": "address"
        }
      ],
      "stateMutability": "view",
      "type": "function"
    },
    {
      "inputs": [
        {
          "components": [
            {
              "internalType": "uint256",
              "name": "publicationCollectedProfileId",
              "type": "uint256"
            },
            {
              "internalType": "uint256",
              "name": "publicationCollectedId",
              "type": "uint256"
            },
            {
              "internalType": "uint256",
              "name": "collectorProfileId",
              "type": "uint256"
            },
            {
              "internalType": "address",
              "name": "collectorProfileOwner",
              "type": "address"
            },
            {
              "internalType": "address",
              "name": "transactionExecutor",
              "type": "address"
            },
            {
              "internalType": "uint256[]",
              "name": "referrerProfileIds",
              "type": "uint256[]"
            },
            {
              "internalType": "uint256[]",
              "name": "referrerPubIds",
              "type": "uint256[]"
            },
            {
              "internalType": "enum Types.PublicationType[]",
              "name": "referrerPubTypes",
              "type": "uint8[]"
            },
            {
              "internalType": "bytes",
              "name": "data",
              "type": "bytes"
            }
          ],
          "internalType": "struct ModuleTypes.ProcessCollectParams",
          "name": "processCollectParams",
          "type": "tuple"
        }
      ],
      "name": "calculateFee",
      "outputs": [
        {
          "internalType": "uint160",
          "name": "",
          "type": "uint160"
        }
      ],
      "stateMutability": "view",
      "type": "function"
    },
    {
      "inputs": [
        {
          "internalType": "uint256",
          "name": "profileId",
          "type": "uint256"
        },
        {
          "internalType": "uint256",
          "name": "pubId",
          "type": "uint256"
        }
      ],
      "name": "getBasePublicationData",
      "outputs": [
        {
          "components": [
            {
              "internalType": "uint160",
              "name": "amount",
              "type": "uint160"
            },
            {
              "internalType": "uint96",
              "name": "collectLimit",
              "type": "uint96"
            },
            {
              "internalType": "address",
              "name": "currency",
              "type": "address"
            },
            {
              "internalType": "uint96",
              "name": "currentCollects",
              "type": "uint96"
            },
            {
              "internalType": "address",
              "name": "recipient",
              "type": "address"
            },
            {
              "internalType": "uint16",
              "name": "referralFee",
              "type": "uint16"
            },
            {
              "internalType": "bool",
              "name": "followerOnly",
              "type": "bool"
            },
            {
              "internalType": "uint72",
              "name": "endTimestamp",
              "type": "uint72"
            }
          ],
          "internalType": "struct BaseProfilePublicationData",
          "name": "",
          "type": "tuple"
        }
      ],
      "stateMutability": "view",
      "type": "function"
    },
    {
      "inputs": [],
      "name": "getModuleMetadataURI",
      "outputs": [
        {
          "internalType": "string",
          "name": "",
          "type": "string"
        }
      ],
      "stateMutability": "view",
      "type": "function"
    },
    {
      "inputs": [
        {
          "internalType": "uint256",
          "name": "profileId",
          "type": "uint256"
        },
        {
          "internalType": "uint256",
          "name": "pubId",
          "type": "uint256"
        }
      ],
      "name": "getPublicationData",
      "outputs": [
        {
          "components": [
            {
              "internalType": "uint160",
              "name": "amount",
              "type": "uint160"
            },
            {
              "internalType": "uint96",
              "name": "collectLimit",
              "type": "uint96"
            },
            {
              "internalType": "address",
              "name": "currency",
              "type": "address"
            },
            {
              "internalType": "uint96",
              "name": "currentCollects",
              "type": "uint96"
            },
            {
              "internalType": "uint16",
              "name": "referralFee",
              "type": "uint16"
            },
            {
              "internalType": "bool",
              "name": "followerOnly",
              "type": "bool"
            },
            {
              "internalType": "uint72",
              "name": "endTimestamp",
              "type": "uint72"
            },
            {
              "components": [
                {
                  "internalType": "address",
                  "name": "recipient",
                  "type": "address"
                },
                {
                  "internalType": "uint16",
                  "name": "split",
                  "type": "uint16"
                }
              ],
              "internalType": "struct RecipientData[]",
              "name": "recipients",
              "type": "tuple[]"
            },
            {
              "components": [
                {
                  "internalType": "address",
                  "name": "tokenAddress",
                  "type": "address"
                },
                {
                  "internalType": "uint256",
                  "name": "minThreshold",
                  "type": "uint256"
                }
              ],
              "internalType": "struct GateParams",
              "name": "gateParams",
              "type": "tuple"
            }
          ],
          "internalType": "struct TokenGatedCollectPublicationData",
          "name": "",
          "type": "tuple"
        }
      ],
      "stateMutability": "view",
      "type": "function"
    },
    {
      "inputs": [
        {
          "internalType": "uint256",
          "name": "profileId",
          "type": "uint256"
        },
        {
          "internalType": "uint256",
          "name": "pubId",
          "type": "uint256"
        },
        {
          "internalType": "address",
          "name": "",
          "type": "address"
        },
        {
          "internalType": "bytes",
          "name": "data",
          "type": "bytes"
        }
      ],
      "name": "initializePublicationCollectModule",
      "outputs": [
        {
          "internalType": "bytes",
          "name": "",
          "type": "bytes"
        }
      ],
      "stateMutability": "nonpayable",
      "type": "function"
    },
    {
      "inputs": [],
      "name": "isRegistered",
      "outputs": [
        {
          "internalType": "bool",
          "name": "",
          "type": "bool"
        }
      ],
      "stateMutability": "view",
      "type": "function"
    },
    {
      "inputs": [],
      "name": "owner",
      "outputs": [
        {
          "internalType": "address",
          "name": "",
          "type": "address"
        }
      ],
      "stateMutability": "view",
      "type": "function"
    },
    {
      "inputs": [
        {
          "components": [
            {
              "internalType": "uint256",
              "name": "publicationCollectedProfileId",
              "type": "uint256"
            },
            {
              "internalType": "uint256",
              "name": "publicationCollectedId",
              "type": "uint256"
            },
            {
              "internalType": "uint256",
              "name": "collectorProfileId",
              "type": "uint256"
            },
            {
              "internalType": "address",
              "name": "collectorProfileOwner",
              "type": "address"
            },
            {
              "internalType": "address",
              "name": "transactionExecutor",
              "type": "address"
            },
            {
              "internalType": "uint256[]",
              "name": "referrerProfileIds",
              "type": "uint256[]"
            },
            {
              "internalType": "uint256[]",
              "name": "referrerPubIds",
              "type": "uint256[]"
            },
            {
              "internalType": "enum Types.PublicationType[]",
              "name": "referrerPubTypes",
              "type": "uint8[]"
            },
            {
              "internalType": "bytes",
              "name": "data",
              "type": "bytes"
            }
          ],
          "internalType": "struct ModuleTypes.ProcessCollectParams",
          "name": "processCollectParams",
          "type": "tuple"
        }
      ],
      "name": "processCollect",
      "outputs": [
        {
          "internalType": "bytes",
          "name": "",
          "type": "bytes"
        }
      ],
      "stateMutability": "nonpayable",
      "type": "function"
    },
    {
      "inputs": [],
      "name": "registerModule",
      "outputs": [
        {
          "internalType": "bool",
          "name": "",
          "type": "bool"
        }
      ],
      "stateMutability": "nonpayable",
      "type": "function"
    },
    {
      "inputs": [],
      "name": "renounceOwnership",
      "outputs": [],
      "stateMutability": "nonpayable",
      "type": "function"
    },
    {
      "inputs": [
        {
          "internalType": "string",
          "name": "_metadataURI",
          "type": "string"
        }
      ],
      "name": "setModuleMetadataURI",
      "outputs": [],
      "stateMutability": "nonpayable",
      "type": "function"
    },
    {
      "inputs": [
        {
          "internalType": "bytes4",
          "name": "interfaceID",
          "type": "bytes4"
        }
      ],
      "name": "supportsInterface",
      "outputs": [
        {
          "internalType": "bool",
          "name": "",
          "type": "bool"
        }
      ],
      "stateMutability": "pure",
      "type": "function"
    },
    {
      "inputs": [
        {
          "internalType": "address",
          "name": "newOwner",
          "type": "address"
        }
      ],
      "name": "transferOwnership",
      "outputs": [],
      "stateMutability": "nonpayable",
      "type": "function"
    }
  ],
  "transactionHash": "0x170e34bf97500ee6485b914753bb5d6c731e2673be91c9b3ae8377b0206d6dc8",
  "args": [
    "0xA2574D9DdB6A325Ad2Be838Bd854228B80215148",
    "0x34A437A91415C36712B0D912c171c74595Be437d",
    "0x9E81eD8099dF82004D298144138C12AbB959DF1E",
    "0xA82C8f5A03AeB2221abEdB51d9E462aFd9f63CD4"
  ],
  "numDeployments": 1,
  "solcInputHash": "6e691ee9b67fde6c809b89165ceec2f9",
  "bytecode": "0x610100346200010657601f6200235f38819003918201601f19168301916001600160401b038311848410176200010b5780849260809460405283398101031262000106578062000053620000a89262000121565b620000616020830162000121565b6200007d6060620000756040860162000121565b940162000121565b6001600160a01b0383811660805290931660a05260c05260e052620000a23362000136565b62000136565b6040516121df908162000180823960805181611e9c015260a0518181816103980152818161093b0152818161150a01526116c7015260c05181818161043101528181610bae01526112ad015260e051818181610c0b0152611a150152f35b600080fd5b634e487b7160e01b600052604160045260246000fd5b51906001600160a01b03821682036200010657565b600180546001600160a01b039283166001600160a01b0319821681179092559091167f8be0079c531659141344cd1fd0a4f28419497f9722a3daafe3b4186f6b6457e0600080a356fe608080604052600436101561001357600080fd5b60003560e01c90816301ffc9a7146112f75750806322366844146112dc578063397a2a88146112975780633f5038921461104d578063681591c114610ec05780636fb7166114610b95578063715018a614610b385780638da5cb5b14610b0f57806391027b53146103c7578063b95ddb5214610382578063ce90d52e1461029b578063e0f0da851461026e578063f2fde38b146101a8578063f8d7758c1461015b5763fcdd2347146100c457600080fd5b34610156576101006100de6100d836611375565b90611755565b68ffffffffffffffffff60e06040519260018060a01b0380825116855260208201516001600160601b0380911660208701528160408401511660408701526060830151166060860152608082015116608085015261ffff60a08201511660a085015260c0810151151560c085015201511660e0820152f35b600080fd5b3461015657602061019661016e36611451565b803560009081526020818152604080832093820135835292905220546001600160a01b031690565b6040516001600160a01b039091168152f35b34610156576020366003190112610156576004356001600160a01b0381811691829003610156576101d7611810565b811561021a57600154826001600160601b0360a01b821617600155167f8be0079c531659141344cd1fd0a4f28419497f9722a3daafe3b4186f6b6457e0600080a3005b60405162461bcd60e51b815260206004820152602660248201527f4f776e61626c653a206e6577206f776e657220697320746865207a65726f206160448201526564647265737360d01b6064820152608490fd5b3461015657600036600319011261015657610287611810565b6020610291611697565b6040519015158152f35b34610156576000366003190112610156576040516002546000826102be83611619565b9182825260209360019085600182169182600014610362575050600114610305575b506102ed925003836113de565b610301604051928284938452830190611483565b0390f35b84915060026000527f405787fa12a823e0f2b7631cc41b3ba8828b3321ca811111fa75cd3aa3bb5ace906000915b85831061034a5750506102ed9350820101856102e0565b80548389018501528794508693909201918101610333565b60ff1916858201526102ed95151560051b85010192508791506102e09050565b34610156576000366003190112610156576040517f00000000000000000000000000000000000000000000000000000000000000006001600160a01b03168152602090f35b34610156576080366003190112610156576044356001600160a01b03811603610156576001600160401b036064351161015657366023606435011215610156576001600160401b0360643560040135116101565736602460643560040135606435010111610156577f00000000000000000000000000000000000000000000000000000000000000006001600160a01b03163303610afd5761012060643560048101358101031261015657606435602401356001600160a01b03811681036101565760446064350135906001600160601b0382168203610156576104ae60648035016114c3565b916104bd608460643501611688565b9160a460643501359384151585036101565760c460643501359368ffffffffffffffffff85168503610156576001600160401b0360e4606435013511610156576024606435600401356064350101604360e46064350135606435010112156101565761053460643560e48101350160240135611562565b9461054260405196876113de565b60643560e48101358101602481810135808a5260208a019360048101350190910160069190911b909101604401116101565760643560e481013501604401905b60643560e481013501602481013560061b016044018210610ab15750506040606435600481013581010360df19011261015657604051966105c2886113a7565b6105d1610104606435016114c3565b808952610124606435013560208a0152604051906370a0823160e01b6020830152306024830152602482528160608101106001600160401b03606084011117610a735760608201604052815160009283926020909101906001600160a01b03165afa61063b611c0b565b60208a015115918215610aa8575b508115610a9b575b50610a895760043560005260036020526040600020602435600052602052604060002060018060a01b038951166001600160601b0360a01b825416178155600160208a0151910155604051958660e08101106001600160401b0360e089011117610a735760e0870160409081526001600160a01b0387811689526001600160601b039290921660208901529085169087015261ffff9092166060860152901515608085015268ffffffffffffffffff1660a0840152600060c0840152835115159182610a46575b50506109bb5780516001600160a01b0316158080610a2f575b8115610a0b575b5080156109f8575b80156109cd575b6109bb5760408101516001600160a01b03168061091b575b5061077360a0926024359060043590611c65565b8051600435600090815260208181526040808320602435845282529091208054918401516001600160a01b031960a09190911b166001861b600019019093166001600160601b03861b909216919091176001600160a01b03169190911790556040818101516004356000908152602081815283822060243583529052919091206001808201805491861b600019019384166001600160601b03871b92831617905560c084015160029092018054606086015161ffff60a01b60a09190911b1693909416939091169290921761ffff60a01b1916179055608081015160043560008181526020818152604080832060243580855290835292819020600201805497909601516001600160b81b031960b89190911b1660ff60b01b95151560b01b959095166001600160b01b03909716969096179390931790935584519482015184516001600160a01b03909616865291850191909152909290917e1b01f30767efad067e528e93b9be9561450f768ae05e7fbeaddadb6a4415e191a3610301610907366064356004013560246064350161141a565b604051918291602083526020830190611483565b604051633f8ecfd360e21b815260048101919091529160208360248160007f00000000000000000000000000000000000000000000000000000000000000006001600160a01b03165af19081156109af5760a09361077392610980575b50925061075f565b6109a19060203d6020116109a8575b61099981836113de565b8101906114d7565b5085610978565b503d61098f565b6040513d6000823e3d90fd5b6040516348be0eb360e01b8152600490fd5b5068ffffffffffffffffff60a08201511680151590816109ee575b50610747565b90504211846109e8565b5061271061ffff60608301511611610740565b90501580610a1a575b84610738565b5060408101516001600160a01b031615610a14565b60408301516001600160a01b031615159150610731565b6001600160a01b03161591508115610a61575b508480610718565b6001600160a01b031615905084610a59565b634e487b7160e01b600052604160045260246000fd5b604051631e448c8760e21b8152600490fd5b6020915051141589610651565b1591508a610649565b604060248360643560040135606435010301126101565760206040918251610ad8816113a7565b610ae1856114c3565b8152610aee838601611688565b83820152815201910190610582565b604051632fc56e1160e21b8152600490fd5b34610156576000366003190112610156576001546040516001600160a01b039091168152602090f35b3461015657600036600319011261015657610b51611810565b600180546001600160a01b031981169091556000906001600160a01b03167f8be0079c531659141344cd1fd0a4f28419497f9722a3daafe3b4186f6b6457e08280a3005b3461015657610ba336611451565b6001600160a01b03907f000000000000000000000000000000000000000000000000000000000000000082163303610afd576040810135918135906020938484013583600052600386526040600020816000528652610c0560406000206115f2565b838151167f000000000000000000000000000000000000000000000000000000000000000094604051906331a9108f60e11b82528560048301528982602481848b165afa80156109af578a92600091610e88575b506040516370a0823160e01b81529116600482015291829060249082905afa9081156109af57600091610e5b575b5087868514159283610e4e575b505050610e3c5783600052600086526040600020816000528652600160406000200192835460a01c6001600160601b0393848214610e265785546001600160a01b031660019290920160a081901b6001600160a01b031916929092179095559385908160005260008952604060002084600052895260ff60026040600020015460b01c16610e15575b50905060005260008652604060002081600052865260026040600020015460b81c9360005260008652604060002090600052855260406000205460a01c908115159283610e09575b505050610df7578015159081610ded575b50610ddb57610d8860a0820182611653565b15159050610dcd57610d9990611b4b565b604051908082018281106001600160401b03821117610a735760405260008252610301604051928284938452830190611483565b610dd6906118e2565b610d99565b6040516304cd703960e51b8152600490fd5b9050421183610d76565b604051635b21dfd360e11b8152600490fd5b16119050848080610d65565b610e1e92611da5565b868481610d1d565b634e487b7160e01b600052601160045260246000fd5b60405163569d45cf60e11b8152600490fd5b0151119050878781610c94565b90508781813d8311610e81575b610e7281836113de565b81010312610156575188610c87565b503d610e68565b83819492503d8311610eb9575b610e9f81836113de565b81010312610156576024610eb38b93611868565b90610c59565b503d610e95565b3461015657602080600319360112610156576001600160401b03600435818111610156573660238201121561015657610f0390369060248160040135910161141a565b91610f0c611810565b8251918211610a7357610f20600254611619565b601f8111610fe8575b50602090601f8311600114610f6757508192600092610f5c575b5050600019600383901b1c191660019190911b17600255005b015190508280610f43565b90601f1983169360026000527f405787fa12a823e0f2b7631cc41b3ba8828b3321ca811111fa75cd3aa3bb5ace926000905b868210610fd05750508360019510610fb7575b505050811b01600255005b015160001960f88460031b161c19169055828080610fac565b80600185968294968601518155019501930190610f99565b60026000527f405787fa12a823e0f2b7631cc41b3ba8828b3321ca811111fa75cd3aa3bb5ace601f840160051c81019160208510611043575b601f0160051c01905b8181106110375750610f29565b6000815560010161102a565b9091508190611021565b346101565761119361105e36611375565b919060405161106c8161138b565b6000815260006020820152600060408201526000606082015260006080820152600060a0820152600060c0820152606060e0820152610100604051916110b1836113a7565b600083526000602084015201526111896110cb8483611755565b60018060a01b03815116946001600160601b036020830151169160018060a01b036040820151166001600160601b0360608301511661ffff60a0840151169168ffffffffffffffffff60e060c08601511515950151169488600052600360205260406000208160005260205260406000209860005260046020526040600020906000526020526040600020956040519a6111648c61138b565b8b5260208b015260408a01526060890152608088015260a087015260c0860152611579565b60e08401526115f2565b6101008201526040516020815260018060a01b0382511660208201526001600160601b03602083015116604082015260018060a01b0360408301511660608201526001600160601b03606083015116608082015261ffff60808301511660a082015260a0820151151560c082015268ffffffffffffffffff60c08301511660e082015260e0820151610140806101008401528151806101608501526020610180850193019060005b8181106112685750505060206101008495015160018060a01b038151166101208601520151908301520390f35b825180516001600160a01b0316865260209081015161ffff16818701526040909501949092019160010161123b565b34610156576000366003190112610156576040517f00000000000000000000000000000000000000000000000000000000000000006001600160a01b03168152602090f35b346101565760003660031901126101565760206102916114ef565b34610156576020366003190112610156576001600160e01b0319906004358281169081900361015657602092637f5ab69960e11b8214928315611342575b5050506040519015158152f35b90919250838101906a4c454e535f4d4f44554c4560a81b8252600b8152611368816113a7565b5190201614828080611335565b6040906003190112610156576004359060243590565b61012081019081106001600160401b03821117610a7357604052565b604081019081106001600160401b03821117610a7357604052565b61010081019081106001600160401b03821117610a7357604052565b90601f801991011681019081106001600160401b03821117610a7357604052565b6001600160401b038111610a7357601f01601f191660200190565b929192611426826113ff565b9161143460405193846113de565b829481845281830111610156578281602093846000960137010152565b6003199060208183011261015657600435916001600160401b0383116101565782610120920301126101565760040190565b919082519283825260005b8481106114af575050826000602080949584010152601f8019910116010190565b60208183018101518483018201520161148e565b35906001600160a01b038216820361015657565b90816020910312610156575180151581036101565790565b604051631c5ebe2f60e01b81523060048201526020816024817f00000000000000000000000000000000000000000000000000000000000000006001600160a01b03165afa9081156109af57600091611546575090565b61155f915060203d6020116109a85761099981836113de565b90565b6001600160401b038111610a735760051b60200190565b90815461158581611562565b9260409361159660405191826113de565b82815280946020809201926000526020600020906000935b8585106115bd57505050505050565b600184819284516115cd816113a7565b61ffff8754858060a01b038116835260a01c16838201528152019301940193916115ae565b906040516115ff816113a7565b82546001600160a01b031681526001909201546020830152565b90600182811c92168015611649575b602083101461163357565b634e487b7160e01b600052602260045260246000fd5b91607f1691611628565b903590601e198136030182121561015657018035906001600160401b03821161015657602001918160051b3603831361015657565b359061ffff8216820361015657565b61169f6114ef565b611750576040516320d5a27760e11b81523060048201526001602482015260208160448160007f00000000000000000000000000000000000000000000000000000000000000006001600160a01b03165af19081156109af57600091611731575b50806117095790565b7fb24617d9cac8b35b25b3bcaf3eb7e8e8e1cbed6ee116121e4e1c08a977431062600080a190565b61174a915060203d6020116109a85761099981836113de565b38611700565b600190565b60e060409283928351611767816113c2565b600093818580935282602082015282878201528260608201528260808201528260a08201528260c08201520152825281602052828220908252602052209060028151926117b3846113c2565b80549260018060a01b0393848116865260a01c60208601526001820154908482169086015260a01c60608501520154908116608083015261ffff8160a01c1660a083015260ff8160b01c16151560c083015260b81c60e082015290565b6001546001600160a01b0316330361182457565b606460405162461bcd60e51b815260206004820152602060248201527f4f776e61626c653a2063616c6c6572206973206e6f7420746865206f776e65726044820152fd5b51906001600160a01b038216820361015657565b903590601e198136030182121561015657018035906001600160401b0382116101565760200191813603831361015657565b81810292918115918404141715610e2657565b356001600160a01b03811681036101565790565b91908203918211610e2657565b80356000908152602081815260408083208285013584529091529020549091906001600160a01b03908116908115611b455790839182359060009282845260209184835260409485812095848801359687835285526001938382842060010154169788826101008c01611955908d61187c565b61195f9391611e25565b88611968611e85565b936127109e8f61ffff80971661197e90846118ae565b0480938115159561199796611b2d575b505050506118d5565b97845283875282842090845286526002828420015460a01c1699829a806119d6575b505050505050506119d493946119ce916118d5565b91612068565b565b6119e79192939495969b50876118ae565b049860a08801926119f8848a611653565b8093915015611b1957828c049485611a11575b506119b9565b92957f00000000000000000000000000000000000000000000000000000000000000001692825b878110611a455750611a0b565b611a4f828d611653565b821015611b05578651906331a9108f60e11b82528260051b013560048201528381602481895afa908115611afb5791888b928f948f908992611aaa575b50611a9e6080611aa4959697016118c1565b90611f38565b01611a38565b945050505091508381813d8311611af4575b611ac681836113de565b81010312611af05790611aa4888e8e611a9e60808f97611ae590611868565b939796955050611a8c565b8480fd5b503d611abc565b87513d87823e3d90fd5b634e487b7160e01b85526032600452602485fd5b634e487b7160e01b82526012600452602482fd5b611a9e6080611b3c95016118c1565b8c82388e61198e565b50509050565b80356000908152602081815260408083208285013584529091529020546001600160a01b03919082168015611c06576119ce61ffff6119d49484356000526000602052604060002060208601356000526020526001604060002001541692611bc28185611bbc61010089018961187c565b90611e25565b612710611bd9611bd0611e85565b909416836118ae565b04918280611be9575b50506118d5565b611bff91611bf9608089016118c1565b87611f38565b3882611be2565b505050565b3d15611c36573d90611c1c826113ff565b91611c2a60405193846113de565b82523d6000602084013e565b606090565b8051821015611c4f5760209160051b010190565b634e487b7160e01b600052603260045260246000fd5b92919280518015611d9e5760009260005b828110611ca0575050505061271091925003611c8e57565b60405163195f90f160e21b8152600490fd5b61ffff906020958287611cb38489611c3b565b5101511615611d8c578287611cc88489611c3b565b510151168101809111610e265795836000526004928382526040806000208b600052835260002091611cfa8489611c3b565b519280549068010000000000000000821015611d7757600196878301808355831015611d625750600090815282902084519101805492909401516001600160b01b03199092166001600160a01b039190911617911660a01b61ffff60a01b1617905501611c76565b603290634e487b7160e01b6000525260246000fd5b604187634e487b7160e01b6000525260246000fd5b60405163409bab8160e01b8152600490fd5b5050509050565b91808214611c06576040516347720ebb60e01b81526004810192909252602482015290602090829060449082906001600160a01b03165afa9081156109af57600091611e06575b5015611df457565b6040516322d9eef360e21b8152600490fd5b611e1f915060203d6020116109a85761099981836113de565b38611dec565b90816040919493948101031261015657611e3e816114c3565b602091909101359091148015926001600160a01b0391611e74575b505050611e6257565b6040516346308bd560e01b8152600490fd5b819293501691161415388080611e59565b604080516398f965d160e01b8152919080836004817f00000000000000000000000000000000000000000000000000000000000000006001600160a01b03165afa928315611f2d576000918294611edd575b50509190565b9080929450813d8311611f26575b611ef581836113de565b81010312611f22576020611f0882611868565b9101519261ffff84168403611f1f57503880611ed7565b80fd5b8280fd5b503d611eeb565b50513d6000823e3d90fd5b6040516323b872dd60e01b602082019081526001600160a01b0393841660248301529383166044820152606480820195909552938452919260a08101929091906001600160401b03841183851017610a7357611fe0946000928392866040521693611fa2866113a7565b602086527f5361666545524332303a206c6f772d6c6576656c2063616c6c206661696c656460c0820152519082855af1611fda611c0b565b9161210c565b805190811591821561204e575b505015611ff657565b60405162461bcd60e51b815260206004820152602a60248201527f5361666545524332303a204552433230206f7065726174696f6e20646964206e6044820152691bdd081cdd58d8d9595960b21b6064820152608490fd5b61206192506020809183010191016114d7565b3880611fed565b909181356000526020926004602052604060002060208401356000526020526120946040600020611579565b9182519460005b8681106120ab5750505050505050565b806127106120cc61ffff856120c26001968b611c3b565b51015116866118ae565b04806120da575b500161209b565b61210690838060a01b036120f060808b016118c1565b816120fb868c611c3b565b515116918916611f38565b386120d3565b9192901561216e5750815115612120575090565b3b156121295790565b60405162461bcd60e51b815260206004820152601d60248201527f416464726573733a2063616c6c20746f206e6f6e2d636f6e74726163740000006044820152606490fd5b8251909150156121815750805190602001fd5b60405162461bcd60e51b8152602060048201529081906121a5906024830190611483565b0390fdfea2646970667358221220b108c5c66c3f77b01dcf1e047ac8bd12ce198f6b49307b6e82a5bd1ec11b519864736f6c63430008170033",
  "devdoc": {
    "kind": "dev",
    "methods": {
      "calculateFee((uint256,uint256,uint256,address,address,uint256[],uint256[],uint8[],bytes))": {
        "details": "Override this function to use a different formula for the fee.",
        "returns": {
          "_0": "The collect fee of the specified publication."
        }
      },
      "getBasePublicationData(uint256,uint256)": {
        "params": {
          "profileId": "The token ID of the profile mapped to the publication to query.",
          "pubId": "The publication ID of the publication to query."
        },
        "returns": {
          "_0": "The BaseProfilePublicationData struct mapped to that publication."
        }
      },
      "getPublicationData(uint256,uint256)": {
        "params": {
          "profileId": "The token ID of the profile mapped to the publication to query.",
          "pubId": "The publication ID of the publication to query."
        },
        "returns": {
          "_0": "The TokenGatedCollectPublicationData struct mapped to that publication."
        }
      },
      "isRegistered()": {
        "details": "Checks if the module is registered in the module registry",
        "returns": {
          "_0": "True if the module is registered, false otherwise"
        }
      },
      "owner()": {
        "details": "Returns the address of the current owner."
      },
      "processCollect((uint256,uint256,uint256,address,address,uint256[],uint256[],uint8[],bytes))": {
        "params": {
          "processCollectParams": "Collect action parameters (see ModuleTypes.ProcessCollectParams struct)"
        },
        "returns": {
          "_0": "bytes Any custom ABI-encoded data. This will be a LensHub event params that can be used by indexers or UIs."
        }
      },
      "registerModule()": {
        "details": "Registers the open action in the module registry",
        "returns": {
          "_0": "True if the module was registered, false otherwise"
        }
      },
      "renounceOwnership()": {
        "details": "Leaves the contract without owner. It will not be possible to call `onlyOwner` functions. Can only be called by the current owner. NOTE: Renouncing ownership will leave the contract without an owner, thereby disabling any functionality that is only available to the owner."
      },
      "transferOwnership(address)": {
        "details": "Transfers ownership of the contract to a new account (`newOwner`). Can only be called by the current owner."
      }
    },
    "version": 1
  },
  "userdoc": {
    "kind": "user",
    "methods": {
      "calculateFee((uint256,uint256,uint256,address,address,uint256[],uint256[],uint8[],bytes))": {
        "notice": "Calculates and returns the collect fee of a publication."
      },
      "getBasePublicationData(uint256,uint256)": {
        "notice": "Returns the Base publication data for a given publication, or an empty struct if that publication was not initialized with this module."
      },
      "getModuleMetadataURI()": {
        "notice": "Human-readable description of the module"
      },
      "getPublicationData(uint256,uint256)": {
        "notice": "Returns the publication data for a given publication, or an empty struct if that publication was not initialized with this module."
      },
      "processCollect((uint256,uint256,uint256,address,address,uint256[],uint256[],uint8[],bytes))": {
        "notice": "Processes a collect by:  1. Validating that collect action meets all needed criteria  2. Processing the collect action either with or without referral"
      }
    },
    "version": 1
  },
  "storageLayout": {
    "storage": [
      {
        "astId": 23778,
        "contract": "contracts/TokenGatedCollectModule.sol:TokenGatedCollectModule",
        "label": "_dataByPublicationByProfile",
        "offset": 0,
        "slot": "0",
        "type": "t_mapping(t_uint256,t_mapping(t_uint256,t_struct(BaseProfilePublicationData)24850_storage))"
      },
      {
        "astId": 7,
        "contract": "contracts/TokenGatedCollectModule.sol:TokenGatedCollectModule",
        "label": "_owner",
        "offset": 0,
        "slot": "1",
        "type": "t_address"
      },
      {
        "astId": 22273,
        "contract": "contracts/TokenGatedCollectModule.sol:TokenGatedCollectModule",
        "label": "metadataURI",
        "offset": 0,
        "slot": "2",
        "type": "t_string_storage"
      },
      {
        "astId": 4219,
        "contract": "contracts/TokenGatedCollectModule.sol:TokenGatedCollectModule",
        "label": "_gateParams",
        "offset": 0,
        "slot": "3",
        "type": "t_mapping(t_uint256,t_mapping(t_uint256,t_struct(GateParams)4158_storage))"
      },
      {
        "astId": 4227,
        "contract": "contracts/TokenGatedCollectModule.sol:TokenGatedCollectModule",
        "label": "_recipients",
        "offset": 0,
        "slot": "4",
        "type": "t_mapping(t_uint256,t_mapping(t_uint256,t_array(t_struct(RecipientData)4152_storage)dyn_storage))"
      }
    ],
    "types": {
      "t_address": {
        "encoding": "inplace",
        "label": "address",
        "numberOfBytes": "20"
      },
      "t_array(t_struct(RecipientData)4152_storage)dyn_storage": {
        "base": "t_struct(RecipientData)4152_storage",
        "encoding": "dynamic_array",
        "label": "struct RecipientData[]",
        "numberOfBytes": "32"
      },
      "t_bool": {
        "encoding": "inplace",
        "label": "bool",
        "numberOfBytes": "1"
      },
      "t_mapping(t_uint256,t_array(t_struct(RecipientData)4152_storage)dyn_storage)": {
        "encoding": "mapping",
        "key": "t_uint256",
        "label": "mapping(uint256 => struct RecipientData[])",
        "numberOfBytes": "32",
        "value": "t_array(t_struct(RecipientData)4152_storage)dyn_storage"
      },
      "t_mapping(t_uint256,t_mapping(t_uint256,t_array(t_struct(RecipientData)4152_storage)dyn_storage))": {
        "encoding": "mapping",
        "key": "t_uint256",
        "label": "mapping(uint256 => mapping(uint256 => struct RecipientData[]))",
        "numberOfBytes": "32",
        "value": "t_mapping(t_uint256,t_array(t_struct(RecipientData)4152_storage)dyn_storage)"
      },
      "t_mapping(t_uint256,t_mapping(t_uint256,t_struct(BaseProfilePublicationData)24850_storage))": {
        "encoding": "mapping",
        "key": "t_uint256",
        "label": "mapping(uint256 => mapping(uint256 => struct BaseProfilePublicationData))",
        "numberOfBytes": "32",
        "value": "t_mapping(t_uint256,t_struct(BaseProfilePublicationData)24850_storage)"
      },
      "t_mapping(t_uint256,t_mapping(t_uint256,t_struct(GateParams)4158_storage))": {
        "encoding": "mapping",
        "key": "t_uint256",
        "label": "mapping(uint256 => mapping(uint256 => struct GateParams))",
        "numberOfBytes": "32",
        "value": "t_mapping(t_uint256,t_struct(GateParams)4158_storage)"
      },
      "t_mapping(t_uint256,t_struct(BaseProfilePublicationData)24850_storage)": {
        "encoding": "mapping",
        "key": "t_uint256",
        "label": "mapping(uint256 => struct BaseProfilePublicationData)",
        "numberOfBytes": "32",
        "value": "t_struct(BaseProfilePublicationData)24850_storage"
      },
      "t_mapping(t_uint256,t_struct(GateParams)4158_storage)": {
        "encoding": "mapping",
        "key": "t_uint256",
        "label": "mapping(uint256 => struct GateParams)",
        "numberOfBytes": "32",
        "value": "t_struct(GateParams)4158_storage"
      },
      "t_string_storage": {
        "encoding": "bytes",
        "label": "string",
        "numberOfBytes": "32"
      },
      "t_struct(BaseProfilePublicationData)24850_storage": {
        "encoding": "inplace",
        "label": "struct BaseProfilePublicationData",
        "members": [
          {
            "astId": 24835,
            "contract": "contracts/TokenGatedCollectModule.sol:TokenGatedCollectModule",
            "label": "amount",
            "offset": 0,
            "slot": "0",
            "type": "t_uint160"
          },
          {
            "astId": 24837,
            "contract": "contracts/TokenGatedCollectModule.sol:TokenGatedCollectModule",
            "label": "collectLimit",
            "offset": 20,
            "slot": "0",
            "type": "t_uint96"
          },
          {
            "astId": 24839,
            "contract": "contracts/TokenGatedCollectModule.sol:TokenGatedCollectModule",
            "label": "currency",
            "offset": 0,
            "slot": "1",
            "type": "t_address"
          },
          {
            "astId": 24841,
            "contract": "contracts/TokenGatedCollectModule.sol:TokenGatedCollectModule",
            "label": "currentCollects",
            "offset": 20,
            "slot": "1",
            "type": "t_uint96"
          },
          {
            "astId": 24843,
            "contract": "contracts/TokenGatedCollectModule.sol:TokenGatedCollectModule",
            "label": "recipient",
            "offset": 0,
            "slot": "2",
            "type": "t_address"
          },
          {
            "astId": 24845,
            "contract": "contracts/TokenGatedCollectModule.sol:TokenGatedCollectModule",
            "label": "referralFee",
            "offset": 20,
            "slot": "2",
            "type": "t_uint16"
          },
          {
            "astId": 24847,
            "contract": "contracts/TokenGatedCollectModule.sol:TokenGatedCollectModule",
            "label": "followerOnly",
            "offset": 22,
            "slot": "2",
            "type": "t_bool"
          },
          {
            "astId": 24849,
            "contract": "contracts/TokenGatedCollectModule.sol:TokenGatedCollectModule",
            "label": "endTimestamp",
            "offset": 23,
            "slot": "2",
            "type": "t_uint72"
          }
        ],
        "numberOfBytes": "96"
      },
      "t_struct(GateParams)4158_storage": {
        "encoding": "inplace",
        "label": "struct GateParams",
        "members": [
          {
            "astId": 4155,
            "contract": "contracts/TokenGatedCollectModule.sol:TokenGatedCollectModule",
            "label": "tokenAddress",
            "offset": 0,
            "slot": "0",
            "type": "t_address"
          },
          {
            "astId": 4157,
            "contract": "contracts/TokenGatedCollectModule.sol:TokenGatedCollectModule",
            "label": "minThreshold",
            "offset": 0,
            "slot": "1",
            "type": "t_uint256"
          }
        ],
        "numberOfBytes": "64"
      },
      "t_struct(RecipientData)4152_storage": {
        "encoding": "inplace",
        "label": "struct RecipientData",
        "members": [
          {
            "astId": 4149,
            "contract": "contracts/TokenGatedCollectModule.sol:TokenGatedCollectModule",
            "label": "recipient",
            "offset": 0,
            "slot": "0",
            "type": "t_address"
          },
          {
            "astId": 4151,
            "contract": "contracts/TokenGatedCollectModule.sol:TokenGatedCollectModule",
            "label": "split",
            "offset": 20,
            "slot": "0",
            "type": "t_uint16"
          }
        ],
        "numberOfBytes": "32"
      },
      "t_uint16": {
        "encoding": "inplace",
        "label": "uint16",
        "numberOfBytes": "2"
      },
      "t_uint160": {
        "encoding": "inplace",
        "label": "uint160",
        "numberOfBytes": "20"
      },
      "t_uint256": {
        "encoding": "inplace",
        "label": "uint256",
        "numberOfBytes": "32"
      },
      "t_uint72": {
        "encoding": "inplace",
        "label": "uint72",
        "numberOfBytes": "9"
      },
      "t_uint96": {
        "encoding": "inplace",
        "label": "uint96",
        "numberOfBytes": "12"
      }
    }
  }
}