{
  "address": "0x7fbD7496CaE2DAcad7a62350DA8488E31eC026eA",
  "abi": [
    {
      "inputs": [
        {
          "internalType": "address",
          "name": "hub",
          "type": "address"
        },
        {
          "internalType": "address",
          "name": "actionModule",
          "type": "address"
        },
        {
          "internalType": "address",
          "name": "moduleRegistry",
          "type": "address"
        }
      ],
      "stateMutability": "nonpayable",
      "type": "constructor"
    },
    {
      "inputs": [],
      "name": "CollectExpired",
      "type": "error"
    },
    {
      "inputs": [],
      "name": "InvalidInitParams",
      "type": "error"
    },
    {
      "inputs": [],
      "name": "InvalidOffer",
      "type": "error"
    },
    {
      "inputs": [],
      "name": "InvalidRecipientSplits",
      "type": "error"
    },
    {
      "inputs": [],
      "name": "MintLimitExceeded",
      "type": "error"
    },
    {
      "inputs": [],
      "name": "NotActionModule",
      "type": "error"
    },
    {
      "inputs": [],
      "name": "NotFollowing",
      "type": "error"
    },
    {
      "anonymous": false,
      "inputs": [
        {
          "indexed": true,
          "internalType": "address",
          "name": "previousOwner",
          "type": "address"
        },
        {
          "indexed": true,
          "internalType": "address",
          "name": "newOwner",
          "type": "address"
        }
      ],
      "name": "OwnershipTransferred",
      "type": "event"
    },
    {
      "inputs": [],
      "name": "ACTION_MODULE",
      "outputs": [
        {
          "internalType": "address",
          "name": "",
          "type": "address"
        }
      ],
      "stateMutability": "view",
      "type": "function"
    },
    {
      "inputs": [],
      "name": "MODULE_REGISTRY",
      "outputs": [
        {
          "internalType": "contract IModuleRegistry",
          "name": "",
          "type": "address"
        }
      ],
      "stateMutability": "view",
      "type": "function"
    },
    {
      "inputs": [
        {
          "components": [
            {
              "internalType": "uint256",
              "name": "publicationCollectedProfileId",
              "type": "uint256"
            },
            {
              "internalType": "uint256",
              "name": "publicationCollectedId",
              "type": "uint256"
            },
            {
              "internalType": "uint256",
              "name": "collectorProfileId",
              "type": "uint256"
            },
            {
              "internalType": "address",
              "name": "collectorProfileOwner",
              "type": "address"
            },
            {
              "internalType": "address",
              "name": "transactionExecutor",
              "type": "address"
            },
            {
              "internalType": "uint256[]",
              "name": "referrerProfileIds",
              "type": "uint256[]"
            },
            {
              "internalType": "uint256[]",
              "name": "referrerPubIds",
              "type": "uint256[]"
            },
            {
              "internalType": "enum Types.PublicationType[]",
              "name": "referrerPubTypes",
              "type": "uint8[]"
            },
            {
              "internalType": "bytes",
              "name": "data",
              "type": "bytes"
            }
          ],
          "internalType": "struct ModuleTypes.ProcessCollectParams",
          "name": "processCollectParams",
          "type": "tuple"
        }
      ],
      "name": "calculateFee",
      "outputs": [
        {
          "internalType": "uint160",
          "name": "",
          "type": "uint160"
        }
      ],
      "stateMutability": "view",
      "type": "function"
    },
    {
      "inputs": [
        {
          "internalType": "uint256",
          "name": "profileId",
          "type": "uint256"
        },
        {
          "internalType": "uint256",
          "name": "pubId",
          "type": "uint256"
        }
      ],
      "name": "getBasePublicationData",
      "outputs": [
        {
          "components": [
            {
              "internalType": "uint160",
              "name": "amount",
              "type": "uint160"
            },
            {
              "internalType": "uint96",
              "name": "collectLimit",
              "type": "uint96"
            },
            {
              "internalType": "address",
              "name": "currency",
              "type": "address"
            },
            {
              "internalType": "uint96",
              "name": "currentCollects",
              "type": "uint96"
            },
            {
              "internalType": "address",
              "name": "recipient",
              "type": "address"
            },
            {
              "internalType": "uint16",
              "name": "referralFee",
              "type": "uint16"
            },
            {
              "internalType": "bool",
              "name": "followerOnly",
              "type": "bool"
            },
            {
              "internalType": "uint72",
              "name": "endTimestamp",
              "type": "uint72"
            }
          ],
          "internalType": "struct BaseProfilePublicationData",
          "name": "",
          "type": "tuple"
        }
      ],
      "stateMutability": "view",
      "type": "function"
    },
    {
      "inputs": [],
      "name": "getModuleMetadataURI",
      "outputs": [
        {
          "internalType": "string",
          "name": "",
          "type": "string"
        }
      ],
      "stateMutability": "view",
      "type": "function"
    },
    {
      "inputs": [
        {
          "internalType": "uint256",
          "name": "profileId",
          "type": "uint256"
        },
        {
          "internalType": "uint256",
          "name": "pubId",
          "type": "uint256"
        }
      ],
      "name": "getPublicationData",
      "outputs": [
        {
          "components": [
            {
              "internalType": "uint160",
              "name": "amountFloor",
              "type": "uint160"
            },
            {
              "internalType": "uint96",
              "name": "collectLimit",
              "type": "uint96"
            },
            {
              "internalType": "address",
              "name": "currency",
              "type": "address"
            },
            {
              "internalType": "uint96",
              "name": "currentCollects",
              "type": "uint96"
            },
            {
              "internalType": "uint16",
              "name": "referralFee",
              "type": "uint16"
            },
            {
              "internalType": "bool",
              "name": "followerOnly",
              "type": "bool"
            },
            {
              "internalType": "uint72",
              "name": "endTimestamp",
              "type": "uint72"
            },
            {
              "components": [
                {
                  "internalType": "address",
                  "name": "recipient",
                  "type": "address"
                },
                {
                  "internalType": "uint16",
                  "name": "split",
                  "type": "uint16"
                }
              ],
              "internalType": "struct RecipientData[]",
              "name": "recipients",
              "type": "tuple[]"
            }
          ],
          "internalType": "struct PayWhatYouWantCollectProfilePublicationData",
          "name": "",
          "type": "tuple"
        }
      ],
      "stateMutability": "view",
      "type": "function"
    },
    {
      "inputs": [
        {
          "internalType": "uint256",
          "name": "profileId",
          "type": "uint256"
        },
        {
          "internalType": "uint256",
          "name": "pubId",
          "type": "uint256"
        },
        {
          "internalType": "address",
          "name": "",
          "type": "address"
        },
        {
          "internalType": "bytes",
          "name": "data",
          "type": "bytes"
        }
      ],
      "name": "initializePublicationCollectModule",
      "outputs": [
        {
          "internalType": "bytes",
          "name": "",
          "type": "bytes"
        }
      ],
      "stateMutability": "nonpayable",
      "type": "function"
    },
    {
      "inputs": [],
      "name": "owner",
      "outputs": [
        {
          "internalType": "address",
          "name": "",
          "type": "address"
        }
      ],
      "stateMutability": "view",
      "type": "function"
    },
    {
      "inputs": [
        {
          "components": [
            {
              "internalType": "uint256",
              "name": "publicationCollectedProfileId",
              "type": "uint256"
            },
            {
              "internalType": "uint256",
              "name": "publicationCollectedId",
              "type": "uint256"
            },
            {
              "internalType": "uint256",
              "name": "collectorProfileId",
              "type": "uint256"
            },
            {
              "internalType": "address",
              "name": "collectorProfileOwner",
              "type": "address"
            },
            {
              "internalType": "address",
              "name": "transactionExecutor",
              "type": "address"
            },
            {
              "internalType": "uint256[]",
              "name": "referrerProfileIds",
              "type": "uint256[]"
            },
            {
              "internalType": "uint256[]",
              "name": "referrerPubIds",
              "type": "uint256[]"
            },
            {
              "internalType": "enum Types.PublicationType[]",
              "name": "referrerPubTypes",
              "type": "uint8[]"
            },
            {
              "internalType": "bytes",
              "name": "data",
              "type": "bytes"
            }
          ],
          "internalType": "struct ModuleTypes.ProcessCollectParams",
          "name": "processCollectParams",
          "type": "tuple"
        }
      ],
      "name": "processCollect",
      "outputs": [
        {
          "internalType": "bytes",
          "name": "",
          "type": "bytes"
        }
      ],
      "stateMutability": "nonpayable",
      "type": "function"
    },
    {
      "inputs": [],
      "name": "renounceOwnership",
      "outputs": [],
      "stateMutability": "nonpayable",
      "type": "function"
    },
    {
      "inputs": [
        {
          "internalType": "string",
          "name": "_metadataURI",
          "type": "string"
        }
      ],
      "name": "setModuleMetadataURI",
      "outputs": [],
      "stateMutability": "nonpayable",
      "type": "function"
    },
    {
      "inputs": [
        {
          "internalType": "bytes4",
          "name": "interfaceID",
          "type": "bytes4"
        }
      ],
      "name": "supportsInterface",
      "outputs": [
        {
          "internalType": "bool",
          "name": "",
          "type": "bool"
        }
      ],
      "stateMutability": "pure",
      "type": "function"
    },
    {
      "inputs": [
        {
          "internalType": "address",
          "name": "newOwner",
          "type": "address"
        }
      ],
      "name": "transferOwnership",
      "outputs": [],
      "stateMutability": "nonpayable",
      "type": "function"
    }
  ],
  "transactionHash": "0xeac0851a67f907b86ac421e712c2e665c185a1901ab8a0671c131f59ce4e9cbb",
  "args": [
    "0xdb46d1dc155634fbc732f92e853b10b288ad5a1d",
    "0x0D90C58cBe787CD70B5Effe94Ce58185D72143fB",
    "0x1eD5983F0c883B96f7C35528a1e22EEA67DE3Ff9"
  ],
  "numDeployments": 1,
  "solcInputHash": "2997cf1cc41859b5c393121edec27873",
  "bytecode": "0x6101006040523480156200001257600080fd5b5060405162002ac138038062002ac18339810160408190526200003591620000d7565b6001600160a01b03838116608081905282821660a05290831660c05260e0526200005f3362000068565b50505062000121565b600180546001600160a01b038381166001600160a01b0319831681179093556040519116919082907f8be0079c531659141344cd1fd0a4f28419497f9722a3daafe3b4186f6b6457e090600090a35050565b80516001600160a01b0381168114620000d257600080fd5b919050565b600080600060608486031215620000ed57600080fd5b620000f884620000ba565b92506200010860208501620000ba565b91506200011860408501620000ba565b90509250925092565b60805160a05160c05160e05161294a6200017760003960008181610e2701526119170152600081816101110152818161078b015261085c0152600081816101eb015261157e015260006115f0015261294a6000f3fe608060405234801561001057600080fd5b50600436106100df5760003560e01c80638da5cb5b1161008c578063ce90d52e11610066578063ce90d52e1461020d578063f2fde38b14610215578063f8d7758c14610228578063fcdd23471461026b57600080fd5b80638da5cb5b146101b557806391027b53146101d3578063b95ddb52146101e657600080fd5b8063681591c1116100bd578063681591c1146101785780636fb716611461018d578063715018a6146101ad57600080fd5b806301ffc9a7146100e4578063397a2a881461010c5780633f50389214610158575b600080fd5b6100f76100f2366004611dff565b6103be565b60405190151581526020015b60405180910390f35b6101337f000000000000000000000000000000000000000000000000000000000000000081565b60405173ffffffffffffffffffffffffffffffffffffffff9091168152602001610103565b61016b610166366004611e48565b61047e565b6040516101039190611ecb565b61018b610186366004612012565b610759565b005b6101a061019b3660046120e1565b610771565b604051610103919061218b565b61018b61082e565b60015473ffffffffffffffffffffffffffffffffffffffff16610133565b6101a06101e13660046121cb565b610842565b6101337f000000000000000000000000000000000000000000000000000000000000000081565b6101a0610b93565b61018b610223366004612261565b610c25565b6101336102363660046120e1565b8035600090815260208181526040808320938201358352929052205473ffffffffffffffffffffffffffffffffffffffff1690565b6103b1610279366004611e48565b6040805161010081018252600080825260208201819052918101829052606081018290526080810182905260a0810182905260c0810182905260e08101919091525060009182526020828152604080842092845291815291819020815161010081018352815473ffffffffffffffffffffffffffffffffffffffff808216835274010000000000000000000000000000000000000000918290046bffffffffffffffffffffffff90811696840196909652600184015480821695840195909552938190049094166060820152600290910154918216608082015291810461ffff1660a0830152760100000000000000000000000000000000000000000000810460ff16151560c083015277010000000000000000000000000000000000000000000000900468ffffffffffffffffff1660e082015290565b604051610103919061227e565b60007ffeb56d32000000000000000000000000000000000000000000000000000000007fffffffff00000000000000000000000000000000000000000000000000000000831614806104785750604080517f4c454e535f4d4f44554c450000000000000000000000000000000000000000006020808301919091528251600b818403018152602b90920190925280519101207fffffffff000000000000000000000000000000000000000000000000000000008381169116145b92915050565b604080516101008101825260008082526020820181905291810182905260608082018390526080820183905260a0820183905260c0820183905260e0820152906105fb84846040805161010081018252600080825260208201819052918101829052606081018290526080810182905260a0810182905260c0810182905260e08101919091525060009182526020828152604080842092845291815291819020815161010081018352815473ffffffffffffffffffffffffffffffffffffffff808216835274010000000000000000000000000000000000000000918290046bffffffffffffffffffffffff90811696840196909652600184015480821695840195909552938190049094166060820152600290910154918216608082015291810461ffff1660a0830152760100000000000000000000000000000000000000000000810460ff16151560c083015277010000000000000000000000000000000000000000000000900468ffffffffffffffffff1660e082015290565b6000858152600360209081526040808320878452825280832080548251818502810185019093528083529495509293909291849084015b8282101561069a576000848152602090819020604080518082019091529084015473ffffffffffffffffffffffffffffffffffffffff8116825274010000000000000000000000000000000000000000900461ffff1681830152825260019092019101610632565b505050509050604051806101000160405280836000015173ffffffffffffffffffffffffffffffffffffffff16815260200183602001516bffffffffffffffffffffffff168152602001836040015173ffffffffffffffffffffffffffffffffffffffff16815260200183606001516bffffffffffffffffffffffff1681526020018360a0015161ffff1681526020018360c00151151581526020018360e0015168ffffffffffffffffff168152602001828152509250505092915050565b610761610ce1565b600261076d82826123cb565b5050565b60603373ffffffffffffffffffffffffffffffffffffffff7f000000000000000000000000000000000000000000000000000000000000000016146107e2576040517fbf15b84400000000000000000000000000000000000000000000000000000000815260040160405180910390fd5b6107eb82610d62565b6107f860a08301836124e5565b905060000361080f5761080a82610f61565b610818565b610818826110e2565b506040805160208101909152600081525b919050565b610836610ce1565b6108406000611178565b565b60603373ffffffffffffffffffffffffffffffffffffffff7f000000000000000000000000000000000000000000000000000000000000000016146108b3576040517fbf15b84400000000000000000000000000000000000000000000000000000000815260040160405180910390fd5b60006108c183850185612649565b6040805160e081018252825173ffffffffffffffffffffffffffffffffffffffff90811682526020808501516bffffffffffffffffffffffff169083015283830151168183015260608084015161ffff169082015260808084015115159082015260a08084015168ffffffffffffffffff1690820152600060c0808301829052835160058082529181019094529394509092909190816020015b604080518082019091526000808252602082015281526020019060019003908161095b57905050905060005b60058110156109d0578360c0015181600581106109a6576109a66126f2565b60200201518282815181106109bd576109bd6126f2565b6020908102919091010152600101610987565b506109da836111ef565b6109e5818a8a6112db565b815160008a8152602081815260408083208c8452825291829020908501516bffffffffffffffffffffffff167401000000000000000000000000000000000000000090810273ffffffffffffffffffffffffffffffffffffffff948516178255918501516001820180549185167fffffffffffffffffffffffff000000000000000000000000000000000000000090921691909117905560c0850151600290910180546060870151608088015160a089015168ffffffffffffffffff16770100000000000000000000000000000000000000000000000276ffffffffffffffffffffffffffffffffffffffffffffff911515760100000000000000000000000000000000000000000000029190911675ffffffffffffffffffffffffffffffffffffffffffff61ffff9093169096027fffffffffffffffffffff00000000000000000000000000000000000000000000909316949096169390931717919091169190911791909117905585858080601f016020809104026020016040519081016040528093929190818152602001838380828437600092019190915250929c9b505050505050505050505050565b606060028054610ba290612330565b80601f0160208091040260200160405190810160405280929190818152602001828054610bce90612330565b8015610c1b5780601f10610bf057610100808354040283529160200191610c1b565b820191906000526020600020905b815481529060010190602001808311610bfe57829003601f168201915b5050505050905090565b610c2d610ce1565b73ffffffffffffffffffffffffffffffffffffffff8116610cd5576040517f08c379a000000000000000000000000000000000000000000000000000000000815260206004820152602660248201527f4f776e61626c653a206e6577206f776e657220697320746865207a65726f206160448201527f646472657373000000000000000000000000000000000000000000000000000060648201526084015b60405180910390fd5b610cde81611178565b50565b60015473ffffffffffffffffffffffffffffffffffffffff163314610840576040517f08c379a000000000000000000000000000000000000000000000000000000000815260206004820181905260248201527f4f776e61626c653a2063616c6c6572206973206e6f7420746865206f776e65726044820152606401610ccc565b803560009081526020818152604080832082850135845290915281206001018054601490610db5907401000000000000000000000000000000000000000090046bffffffffffffffffffffffff16612750565b82546bffffffffffffffffffffffff8083166101009490940a9384029302191691909117909155823560009081526020818152604080832082870135845290915290206002015490915060ff7601000000000000000000000000000000000000000000009091041615610e5257610e527f000000000000000000000000000000000000000000000000000000000000000060408401358435611501565b81356000908152602081815260408083208286013584529091529020600281015490547701000000000000000000000000000000000000000000000090910468ffffffffffffffffff16907401000000000000000000000000000000000000000090046bffffffffffffffffffffffff168015801590610edf575080836bffffffffffffffffffffffff16115b15610f16576040517fb643bfa600000000000000000000000000000000000000000000000000000000815260040160405180910390fd5b8115801590610f2457508142115b15610f5b576040517f99ae072000000000000000000000000000000000000000000000000000000000815260040160405180910390fd5b50505050565b80356000908152602081815260408083208285013584529091528120805460019091015473ffffffffffffffffffffffffffffffffffffffff9182169291169080610fb061010086018661277b565b810190610fbd91906127e0565b909250905073ffffffffffffffffffffffffffffffffffffffff83161580159061101357508173ffffffffffffffffffffffffffffffffffffffff168373ffffffffffffffffffffffffffffffffffffffff1614155b8061101d57508381105b15611054576040517f2ee3980200000000000000000000000000000000000000000000000000000000815260040160405180910390fd5b61105d8261151d565b6000806110686115eb565b9092509050600061271061108061ffff84168661280c565b61108a9190612823565b905080156110c4576110c46110a560a08a0160808b01612261565b73ffffffffffffffffffffffffffffffffffffffff8716908584611684565b6110d888866110d3848861285e565b611719565b5050505050505050565b6000806110f361010084018461277b565b81019061110091906127e0565b9150915060008061110f6115eb565b9092509050600061271061112761ffff84168661280c565b6111319190612823565b9050801561114c5761114c6110a560a0880160808901612261565b6000611162878761115d858961285e565b611870565b905061116f878783611719565b50505050505050565b6001805473ffffffffffffffffffffffffffffffffffffffff8381167fffffffffffffffffffffffff0000000000000000000000000000000000000000831681179093556040519116919082907f8be0079c531659141344cd1fd0a4f28419497f9722a3daafe3b4186f6b6457e090600090a35050565b805173ffffffffffffffffffffffffffffffffffffffff161580159061122d5750604081015173ffffffffffffffffffffffffffffffffffffffff16155b80611245575061271061ffff16816060015161ffff16115b80611277575060a081015168ffffffffffffffffff16158015906112775750428160a0015168ffffffffffffffffff16105b156112ae576040517f296b774400000000000000000000000000000000000000000000000000000000815260040160405180910390fd5b604081015173ffffffffffffffffffffffffffffffffffffffff1615610cde57610cde816040015161151d565b82516000819003611318576040517f296b774400000000000000000000000000000000000000000000000000000000815260040160405180910390fd5b6000805b828110156114be57600073ffffffffffffffffffffffffffffffffffffffff1686828151811061134e5761134e6126f2565b60200260200101516000015173ffffffffffffffffffffffffffffffffffffffff161415801561139f575085818151811061138b5761138b6126f2565b60200260200101516020015161ffff166000145b156113d6576040517f657e43c400000000000000000000000000000000000000000000000000000000815260040160405180910390fd5b8581815181106113e8576113e86126f2565b60200260200101516020015161ffff16826114039190612871565b60008681526003602090815260408083208884529091529020875191935090879083908110611434576114346126f2565b602090810291909101810151825460018181018555600094855293839020825191018054929093015161ffff1674010000000000000000000000000000000000000000027fffffffffffffffffffff0000000000000000000000000000000000000000000090921673ffffffffffffffffffffffffffffffffffffffff909116171790550161131c565b61271082146114f9576040517f657e43c400000000000000000000000000000000000000000000000000000000815260040160405180910390fd5b505050505050565b80820361150d57505050565b611518838383611a15565b505050565b73ffffffffffffffffffffffffffffffffffffffff811615610cde576040517ffe3b3f4c00000000000000000000000000000000000000000000000000000000815273ffffffffffffffffffffffffffffffffffffffff82811660048301527f0000000000000000000000000000000000000000000000000000000000000000169063fe3b3f4c906024016020604051808303816000875af11580156115c7573d6000803e3d6000fd5b505050506040513d601f19601f8201168201806040525081019061076d9190612884565b6000807f000000000000000000000000000000000000000000000000000000000000000073ffffffffffffffffffffffffffffffffffffffff166398f965d16040518163ffffffff1660e01b81526004016040805180830381865afa158015611658573d6000803e3d6000fd5b505050506040513d601f19601f8201168201806040525081019061167c91906128a1565b915091509091565b6040805173ffffffffffffffffffffffffffffffffffffffff85811660248301528416604482015260648082018490528251808303909101815260849091019091526020810180517bffffffffffffffffffffffffffffffffffffffffffffffffffffffff167f23b872dd00000000000000000000000000000000000000000000000000000000179052610f5b908590611ae1565b82356000908152600360209081526040808320828701358452825280832080548251818502810185019093528083529192909190849084015b828210156117ba576000848152602090819020604080518082019091529084015473ffffffffffffffffffffffffffffffffffffffff8116825274010000000000000000000000000000000000000000900461ffff1681830152825260019092019101611752565b5050825192935060009150505b818110156114f957600061271061ffff168483815181106117ea576117ea6126f2565b60200260200101516020015161ffff1686611805919061280c565b61180f9190612823565b905080156118675761186761182a60a0890160808a01612261565b85848151811061183c5761183c6126f2565b60209081029190910101515173ffffffffffffffffffffffffffffffffffffffff8916919084611684565b506001016117c7565b823560009081526020818152604080832082870135845290915281206002015474010000000000000000000000000000000000000000900461ffff16818115611a01576127106118c0838661280c565b6118ca9190612823565b905060006118db60a08801886124e5565b9150600090506118eb8284612823565b905080156119fe5760005b828110156119fc57600073ffffffffffffffffffffffffffffffffffffffff7f000000000000000000000000000000000000000000000000000000000000000016636352211e61194960a08d018d6124e5565b85818110611959576119596126f2565b905060200201356040518263ffffffff1660e01b815260040161197e91815260200190565b602060405180830381865afa15801561199b573d6000803e3d6000fd5b505050506040513d601f19601f820116820180604052508101906119bf91906128db565b90506119f36119d460a08c0160808d01612261565b73ffffffffffffffffffffffffffffffffffffffff8b16908386611684565b506001016118f6565b505b50505b611a0b818561285e565b9695505050505050565b6040517f47720ebb000000000000000000000000000000000000000000000000000000008152600481018390526024810182905273ffffffffffffffffffffffffffffffffffffffff8416906347720ebb90604401602060405180830381865afa158015611a87573d6000803e3d6000fd5b505050506040513d601f19601f82011682018060405250810190611aab9190612884565b611518576040517f8b67bbcc00000000000000000000000000000000000000000000000000000000815260040160405180910390fd5b6000611b43826040518060400160405280602081526020017f5361666545524332303a206c6f772d6c6576656c2063616c6c206661696c65648152508573ffffffffffffffffffffffffffffffffffffffff16611bf09092919063ffffffff16565b9050805160001480611b64575080806020019051810190611b649190612884565b611518576040517f08c379a000000000000000000000000000000000000000000000000000000000815260206004820152602a60248201527f5361666545524332303a204552433230206f7065726174696f6e20646964206e60448201527f6f742073756363656564000000000000000000000000000000000000000000006064820152608401610ccc565b6060611bff8484600085611c07565b949350505050565b606082471015611c99576040517f08c379a000000000000000000000000000000000000000000000000000000000815260206004820152602660248201527f416464726573733a20696e73756666696369656e742062616c616e636520666f60448201527f722063616c6c00000000000000000000000000000000000000000000000000006064820152608401610ccc565b6000808673ffffffffffffffffffffffffffffffffffffffff168587604051611cc291906128f8565b60006040518083038185875af1925050503d8060008114611cff576040519150601f19603f3d011682016040523d82523d6000602084013e611d04565b606091505b5091509150611d1587838387611d20565b979650505050505050565b60608315611db6578251600003611daf5773ffffffffffffffffffffffffffffffffffffffff85163b611daf576040517f08c379a000000000000000000000000000000000000000000000000000000000815260206004820152601d60248201527f416464726573733a2063616c6c20746f206e6f6e2d636f6e74726163740000006044820152606401610ccc565b5081611bff565b611bff8383815115611dcb5781518083602001fd5b806040517f08c379a0000000000000000000000000000000000000000000000000000000008152600401610ccc919061218b565b600060208284031215611e1157600080fd5b81357fffffffff0000000000000000000000000000000000000000000000000000000081168114611e4157600080fd5b9392505050565b60008060408385031215611e5b57600080fd5b50508035926020909101359150565b60008151808452602080850194506020840160005b83811015611ec0578151805173ffffffffffffffffffffffffffffffffffffffff16885283015161ffff168388015260409096019590820190600101611e7f565b509495945050505050565b6020815273ffffffffffffffffffffffffffffffffffffffff82511660208201526bffffffffffffffffffffffff602083015116604082015260006040830151611f2d606084018273ffffffffffffffffffffffffffffffffffffffff169052565b5060608301516bffffffffffffffffffffffff8116608084015250608083015161ffff811660a08401525060a083015180151560c08401525060c083015168ffffffffffffffffff811660e08401525060e083015161010083810152611bff610120840182611e6a565b7f4e487b7100000000000000000000000000000000000000000000000000000000600052604160045260246000fd5b6040805190810167ffffffffffffffff81118282101715611fe957611fe9611f97565b60405290565b60405160e0810167ffffffffffffffff81118282101715611fe957611fe9611f97565b60006020828403121561202457600080fd5b813567ffffffffffffffff8082111561203c57600080fd5b818401915084601f83011261205057600080fd5b81358181111561206257612062611f97565b604051601f82017fffffffffffffffffffffffffffffffffffffffffffffffffffffffffffffffe0908116603f011681019083821181831017156120a8576120a8611f97565b816040528281528760208487010111156120c157600080fd5b826020860160208301376000928101602001929092525095945050505050565b6000602082840312156120f357600080fd5b813567ffffffffffffffff81111561210a57600080fd5b82016101208185031215611e4157600080fd5b60005b83811015612138578181015183820152602001612120565b50506000910152565b6000815180845261215981602086016020860161211d565b601f017fffffffffffffffffffffffffffffffffffffffffffffffffffffffffffffffe0169290920160200192915050565b602081526000611e416020830184612141565b73ffffffffffffffffffffffffffffffffffffffff81168114610cde57600080fd5b80356108298161219e565b6000806000806000608086880312156121e357600080fd5b853594506020860135935060408601356121fc8161219e565b9250606086013567ffffffffffffffff8082111561221957600080fd5b818801915088601f83011261222d57600080fd5b81358181111561223c57600080fd5b89602082850101111561224e57600080fd5b9699959850939650602001949392505050565b60006020828403121561227357600080fd5b8135611e418161219e565b60006101008201905073ffffffffffffffffffffffffffffffffffffffff80845116835260208401516bffffffffffffffffffffffff808216602086015282604087015116604086015280606087015116606086015250508060808501511660808401525060a08301516122f860a084018261ffff169052565b5060c083015161230c60c084018215159052565b5060e083015161232960e084018268ffffffffffffffffff169052565b5092915050565b600181811c9082168061234457607f821691505b60208210810361237d577f4e487b7100000000000000000000000000000000000000000000000000000000600052602260045260246000fd5b50919050565b601f821115611518576000816000526020600020601f850160051c810160208610156123ac5750805b601f850160051c820191505b818110156114f9578281556001016123b8565b815167ffffffffffffffff8111156123e5576123e5611f97565b6123f9816123f38454612330565b84612383565b602080601f83116001811461244c57600084156124165750858301515b7fffffffffffffffffffffffffffffffffffffffffffffffffffffffffffffffff600386901b1c1916600185901b1785556114f9565b6000858152602081207fffffffffffffffffffffffffffffffffffffffffffffffffffffffffffffffe08616915b828110156124995788860151825594840194600190910190840161247a565b50858210156124d557878501517fffffffffffffffffffffffffffffffffffffffffffffffffffffffffffffffff600388901b60f8161c191681555b5050505050600190811b01905550565b60008083357fffffffffffffffffffffffffffffffffffffffffffffffffffffffffffffffe184360301811261251a57600080fd5b83018035915067ffffffffffffffff82111561253557600080fd5b6020019150600581901b360382131561254d57600080fd5b9250929050565b61ffff81168114610cde57600080fd5b803561082981612554565b8015158114610cde57600080fd5b80356108298161256f565b803568ffffffffffffffffff8116811461082957600080fd5b600082601f8301126125b257600080fd5b6040805160a0810181811067ffffffffffffffff821117156125d6576125d6611f97565b604052806101408501868111156125ec57600080fd5b855b8181101561263d578481890312156126065760008081fd5b61260e611fc6565b81356126198161219e565b815260208281013561262a81612554565b82820152908452929092019184016125ee565b50919695505050505050565b6000610200828403121561265c57600080fd5b612664611fef565b823561266f8161219e565b815260208301356bffffffffffffffffffffffff8116811461269057600080fd5b60208201526126a1604084016121c0565b60408201526126b260608401612564565b60608201526126c36080840161257d565b60808201526126d460a08401612588565b60a08201526126e68460c085016125a1565b60c08201529392505050565b7f4e487b7100000000000000000000000000000000000000000000000000000000600052603260045260246000fd5b7f4e487b7100000000000000000000000000000000000000000000000000000000600052601160045260246000fd5b60006bffffffffffffffffffffffff80831681810361277157612771612721565b6001019392505050565b60008083357fffffffffffffffffffffffffffffffffffffffffffffffffffffffffffffffe18436030181126127b057600080fd5b83018035915067ffffffffffffffff8211156127cb57600080fd5b60200191503681900382131561254d57600080fd5b600080604083850312156127f357600080fd5b82356127fe8161219e565b946020939093013593505050565b808202811582820484141761047857610478612721565b600082612859577f4e487b7100000000000000000000000000000000000000000000000000000000600052601260045260246000fd5b500490565b8181038181111561047857610478612721565b8082018082111561047857610478612721565b60006020828403121561289657600080fd5b8151611e418161256f565b600080604083850312156128b457600080fd5b82516128bf8161219e565b60208401519092506128d081612554565b809150509250929050565b6000602082840312156128ed57600080fd5b8151611e418161219e565b6000825161290a81846020870161211d565b919091019291505056fea26469706673582212205f21034e6af201c9cdcd9613169211e33de6f26c27e828390cea1b4a5a8a997464736f6c63430008170033",
  "devdoc": {
    "kind": "dev",
    "methods": {
      "calculateFee((uint256,uint256,uint256,address,address,uint256[],uint256[],uint8[],bytes))": {
        "details": "Override this function to use a different formula for the fee.",
        "returns": {
          "_0": "The collect fee of the specified publication."
        }
      },
      "getBasePublicationData(uint256,uint256)": {
        "params": {
          "profileId": "The token ID of the profile mapped to the publication to query.",
          "pubId": "The publication ID of the publication to query."
        },
        "returns": {
          "_0": "The BaseProfilePublicationData struct mapped to that publication."
        }
      },
      "getPublicationData(uint256,uint256)": {
        "params": {
          "profileId": "The token ID of the profile mapped to the publication to query.",
          "pubId": "The publication ID of the publication to query."
        },
        "returns": {
          "_0": "The PayWhatYouWantCollectProfilePublicationData struct mapped to that publication."
        }
      },
      "initializePublicationCollectModule(uint256,uint256,address,bytes)": {
        "params": {
          "data": "Arbitrary data __passed from the user!__ to be decoded.",
          "profileId": "The token ID of the profile publishing the publication.",
          "pubId": "The associated publication's LensHub publication ID.",
          "transactionExecutor": "The owner or an approved delegated executor."
        },
        "returns": {
          "_0": "bytes Any custom ABI-encoded data. This will be a LensHub event params that can be used by indexers or UIs."
        }
      },
      "owner()": {
        "details": "Returns the address of the current owner."
      },
      "processCollect((uint256,uint256,uint256,address,address,uint256[],uint256[],uint8[],bytes))": {
        "params": {
          "processCollectParams": "Collect action parameters (see ModuleTypes.ProcessCollectParams struct)"
        },
        "returns": {
          "_0": "bytes Any custom ABI-encoded data. This will be a LensHub event params that can be used by indexers or UIs."
        }
      },
      "renounceOwnership()": {
        "details": "Leaves the contract without owner. It will not be possible to call `onlyOwner` functions. Can only be called by the current owner. NOTE: Renouncing ownership will leave the contract without an owner, thereby disabling any functionality that is only available to the owner."
      },
      "transferOwnership(address)": {
        "details": "Transfers ownership of the contract to a new account (`newOwner`). Can only be called by the current owner."
      }
    },
    "version": 1
  },
  "userdoc": {
    "kind": "user",
    "methods": {
      "calculateFee((uint256,uint256,uint256,address,address,uint256[],uint256[],uint8[],bytes))": {
        "notice": "Calculates and returns the collect fee of a publication."
      },
      "getBasePublicationData(uint256,uint256)": {
        "notice": "Returns the Base publication data for a given publication, or an empty struct if that publication was not initialized with this module."
      },
      "getModuleMetadataURI()": {
        "notice": "Human-readable description of the module"
      },
      "getPublicationData(uint256,uint256)": {
        "notice": "Returns the publication data for a given publication, or an empty struct if that publication was not initialized with this module."
      },
      "initializePublicationCollectModule(uint256,uint256,address,bytes)": {
        "notice": "Initializes data for a given publication being published."
      },
      "processCollect((uint256,uint256,uint256,address,address,uint256[],uint256[],uint8[],bytes))": {
        "notice": "Processes a collect by:  1. Validating that collect action meets all needed criteria  2. Processing the collect action either with or without referral"
      }
    },
    "version": 1
  },
  "storageLayout": {
    "storage": [
      {
        "astId": 9640,
        "contract": "contracts/PayWhatYouWantCollectModule.sol:PayWhatYouWantCollectModule",
        "label": "_dataByPublicationByProfile",
        "offset": 0,
        "slot": "0",
        "type": "t_mapping(t_uint256,t_mapping(t_uint256,t_struct(BaseProfilePublicationData)10405_storage))"
      },
      {
        "astId": 7,
        "contract": "contracts/PayWhatYouWantCollectModule.sol:PayWhatYouWantCollectModule",
        "label": "_owner",
        "offset": 0,
        "slot": "1",
        "type": "t_address"
      },
      {
        "astId": 8683,
        "contract": "contracts/PayWhatYouWantCollectModule.sol:PayWhatYouWantCollectModule",
        "label": "metadataURI",
        "offset": 0,
        "slot": "2",
        "type": "t_string_storage"
      },
      {
        "astId": 3185,
        "contract": "contracts/PayWhatYouWantCollectModule.sol:PayWhatYouWantCollectModule",
        "label": "_recipientsByPublicationByProfile",
        "offset": 0,
        "slot": "3",
        "type": "t_mapping(t_uint256,t_mapping(t_uint256,t_array(t_struct(RecipientData)3124_storage)dyn_storage))"
      }
    ],
    "types": {
      "t_address": {
        "encoding": "inplace",
        "label": "address",
        "numberOfBytes": "20"
      },
      "t_array(t_struct(RecipientData)3124_storage)dyn_storage": {
        "base": "t_struct(RecipientData)3124_storage",
        "encoding": "dynamic_array",
        "label": "struct RecipientData[]",
        "numberOfBytes": "32"
      },
      "t_bool": {
        "encoding": "inplace",
        "label": "bool",
        "numberOfBytes": "1"
      },
      "t_mapping(t_uint256,t_array(t_struct(RecipientData)3124_storage)dyn_storage)": {
        "encoding": "mapping",
        "key": "t_uint256",
        "label": "mapping(uint256 => struct RecipientData[])",
        "numberOfBytes": "32",
        "value": "t_array(t_struct(RecipientData)3124_storage)dyn_storage"
      },
      "t_mapping(t_uint256,t_mapping(t_uint256,t_array(t_struct(RecipientData)3124_storage)dyn_storage))": {
        "encoding": "mapping",
        "key": "t_uint256",
        "label": "mapping(uint256 => mapping(uint256 => struct RecipientData[]))",
        "numberOfBytes": "32",
        "value": "t_mapping(t_uint256,t_array(t_struct(RecipientData)3124_storage)dyn_storage)"
      },
      "t_mapping(t_uint256,t_mapping(t_uint256,t_struct(BaseProfilePublicationData)10405_storage))": {
        "encoding": "mapping",
        "key": "t_uint256",
        "label": "mapping(uint256 => mapping(uint256 => struct BaseProfilePublicationData))",
        "numberOfBytes": "32",
        "value": "t_mapping(t_uint256,t_struct(BaseProfilePublicationData)10405_storage)"
      },
      "t_mapping(t_uint256,t_struct(BaseProfilePublicationData)10405_storage)": {
        "encoding": "mapping",
        "key": "t_uint256",
        "label": "mapping(uint256 => struct BaseProfilePublicationData)",
        "numberOfBytes": "32",
        "value": "t_struct(BaseProfilePublicationData)10405_storage"
      },
      "t_string_storage": {
        "encoding": "bytes",
        "label": "string",
        "numberOfBytes": "32"
      },
      "t_struct(BaseProfilePublicationData)10405_storage": {
        "encoding": "inplace",
        "label": "struct BaseProfilePublicationData",
        "members": [
          {
            "astId": 10390,
            "contract": "contracts/PayWhatYouWantCollectModule.sol:PayWhatYouWantCollectModule",
            "label": "amount",
            "offset": 0,
            "slot": "0",
            "type": "t_uint160"
          },
          {
            "astId": 10392,
            "contract": "contracts/PayWhatYouWantCollectModule.sol:PayWhatYouWantCollectModule",
            "label": "collectLimit",
            "offset": 20,
            "slot": "0",
            "type": "t_uint96"
          },
          {
            "astId": 10394,
            "contract": "contracts/PayWhatYouWantCollectModule.sol:PayWhatYouWantCollectModule",
            "label": "currency",
            "offset": 0,
            "slot": "1",
            "type": "t_address"
          },
          {
            "astId": 10396,
            "contract": "contracts/PayWhatYouWantCollectModule.sol:PayWhatYouWantCollectModule",
            "label": "currentCollects",
            "offset": 20,
            "slot": "1",
            "type": "t_uint96"
          },
          {
            "astId": 10398,
            "contract": "contracts/PayWhatYouWantCollectModule.sol:PayWhatYouWantCollectModule",
            "label": "recipient",
            "offset": 0,
            "slot": "2",
            "type": "t_address"
          },
          {
            "astId": 10400,
            "contract": "contracts/PayWhatYouWantCollectModule.sol:PayWhatYouWantCollectModule",
            "label": "referralFee",
            "offset": 20,
            "slot": "2",
            "type": "t_uint16"
          },
          {
            "astId": 10402,
            "contract": "contracts/PayWhatYouWantCollectModule.sol:PayWhatYouWantCollectModule",
            "label": "followerOnly",
            "offset": 22,
            "slot": "2",
            "type": "t_bool"
          },
          {
            "astId": 10404,
            "contract": "contracts/PayWhatYouWantCollectModule.sol:PayWhatYouWantCollectModule",
            "label": "endTimestamp",
            "offset": 23,
            "slot": "2",
            "type": "t_uint72"
          }
        ],
        "numberOfBytes": "96"
      },
      "t_struct(RecipientData)3124_storage": {
        "encoding": "inplace",
        "label": "struct RecipientData",
        "members": [
          {
            "astId": 3121,
            "contract": "contracts/PayWhatYouWantCollectModule.sol:PayWhatYouWantCollectModule",
            "label": "recipient",
            "offset": 0,
            "slot": "0",
            "type": "t_address"
          },
          {
            "astId": 3123,
            "contract": "contracts/PayWhatYouWantCollectModule.sol:PayWhatYouWantCollectModule",
            "label": "split",
            "offset": 20,
            "slot": "0",
            "type": "t_uint16"
          }
        ],
        "numberOfBytes": "32"
      },
      "t_uint16": {
        "encoding": "inplace",
        "label": "uint16",
        "numberOfBytes": "2"
      },
      "t_uint160": {
        "encoding": "inplace",
        "label": "uint160",
        "numberOfBytes": "20"
      },
      "t_uint256": {
        "encoding": "inplace",
        "label": "uint256",
        "numberOfBytes": "32"
      },
      "t_uint72": {
        "encoding": "inplace",
        "label": "uint72",
        "numberOfBytes": "9"
      },
      "t_uint96": {
        "encoding": "inplace",
        "label": "uint96",
        "numberOfBytes": "12"
      }
    }
  }
}