{
  "address": "0x667CAdbD0647e7FD1e089AaEe32fB28eC1b9503B",
  "abi": [
    {
      "inputs": [
        {
          "internalType": "address",
          "name": "hub",
          "type": "address"
        },
        {
          "internalType": "address",
          "name": "actionModule",
          "type": "address"
        },
        {
          "internalType": "address",
          "name": "moduleRegistry",
          "type": "address"
        },
        {
          "internalType": "address",
          "name": "moduleOwner",
          "type": "address"
        }
      ],
      "stateMutability": "nonpayable",
      "type": "constructor"
    },
    {
      "inputs": [],
      "name": "CollectExpired",
      "type": "error"
    },
    {
      "inputs": [],
      "name": "GateParamsInvalid",
      "type": "error"
    },
    {
      "inputs": [],
      "name": "InitParamsInvalid",
      "type": "error"
    },
    {
      "inputs": [],
      "name": "InvalidRecipientSplits",
      "type": "error"
    },
    {
      "inputs": [],
      "name": "MintLimitExceeded",
      "type": "error"
    },
    {
      "inputs": [],
      "name": "ModuleDataMismatch",
      "type": "error"
    },
    {
      "inputs": [],
      "name": "NotActionModule",
      "type": "error"
    },
    {
      "inputs": [],
      "name": "NotEnoughBalance",
      "type": "error"
    },
    {
      "inputs": [],
      "name": "NotFollowing",
      "type": "error"
    },
    {
      "inputs": [],
      "name": "RecipientSplitCannotBeZero",
      "type": "error"
    },
    {
      "anonymous": false,
      "inputs": [],
      "name": "ModuleRegistered",
      "type": "event"
    },
    {
      "anonymous": false,
      "inputs": [
        {
          "indexed": true,
          "internalType": "address",
          "name": "previousOwner",
          "type": "address"
        },
        {
          "indexed": true,
          "internalType": "address",
          "name": "newOwner",
          "type": "address"
        }
      ],
      "name": "OwnershipTransferred",
      "type": "event"
    },
    {
      "anonymous": false,
      "inputs": [
        {
          "indexed": true,
          "internalType": "uint256",
          "name": "profileId",
          "type": "uint256"
        },
        {
          "indexed": true,
          "internalType": "uint256",
          "name": "pubId",
          "type": "uint256"
        },
        {
          "indexed": false,
          "internalType": "address",
          "name": "tokenAddress",
          "type": "address"
        },
        {
          "indexed": false,
          "internalType": "uint256",
          "name": "minThreshold",
          "type": "uint256"
        }
      ],
      "name": "TokenGatedCollectCreated",
      "type": "event"
    },
    {
      "inputs": [],
      "name": "ACTION_MODULE",
      "outputs": [
        {
          "internalType": "address",
          "name": "",
          "type": "address"
        }
      ],
      "stateMutability": "view",
      "type": "function"
    },
    {
      "inputs": [],
      "name": "MODULE_REGISTRY",
      "outputs": [
        {
          "internalType": "contract IModuleRegistry",
          "name": "",
          "type": "address"
        }
      ],
      "stateMutability": "view",
      "type": "function"
    },
    {
      "inputs": [
        {
          "components": [
            {
              "internalType": "uint256",
              "name": "publicationCollectedProfileId",
              "type": "uint256"
            },
            {
              "internalType": "uint256",
              "name": "publicationCollectedId",
              "type": "uint256"
            },
            {
              "internalType": "uint256",
              "name": "collectorProfileId",
              "type": "uint256"
            },
            {
              "internalType": "address",
              "name": "collectorProfileOwner",
              "type": "address"
            },
            {
              "internalType": "address",
              "name": "transactionExecutor",
              "type": "address"
            },
            {
              "internalType": "uint256[]",
              "name": "referrerProfileIds",
              "type": "uint256[]"
            },
            {
              "internalType": "uint256[]",
              "name": "referrerPubIds",
              "type": "uint256[]"
            },
            {
              "internalType": "enum Types.PublicationType[]",
              "name": "referrerPubTypes",
              "type": "uint8[]"
            },
            {
              "internalType": "bytes",
              "name": "data",
              "type": "bytes"
            }
          ],
          "internalType": "struct ModuleTypes.ProcessCollectParams",
          "name": "processCollectParams",
          "type": "tuple"
        }
      ],
      "name": "calculateFee",
      "outputs": [
        {
          "internalType": "uint160",
          "name": "",
          "type": "uint160"
        }
      ],
      "stateMutability": "view",
      "type": "function"
    },
    {
      "inputs": [
        {
          "internalType": "uint256",
          "name": "profileId",
          "type": "uint256"
        },
        {
          "internalType": "uint256",
          "name": "pubId",
          "type": "uint256"
        }
      ],
      "name": "getBasePublicationData",
      "outputs": [
        {
          "components": [
            {
              "internalType": "uint160",
              "name": "amount",
              "type": "uint160"
            },
            {
              "internalType": "uint96",
              "name": "collectLimit",
              "type": "uint96"
            },
            {
              "internalType": "address",
              "name": "currency",
              "type": "address"
            },
            {
              "internalType": "uint96",
              "name": "currentCollects",
              "type": "uint96"
            },
            {
              "internalType": "address",
              "name": "recipient",
              "type": "address"
            },
            {
              "internalType": "uint16",
              "name": "referralFee",
              "type": "uint16"
            },
            {
              "internalType": "bool",
              "name": "followerOnly",
              "type": "bool"
            },
            {
              "internalType": "uint72",
              "name": "endTimestamp",
              "type": "uint72"
            }
          ],
          "internalType": "struct BaseProfilePublicationData",
          "name": "",
          "type": "tuple"
        }
      ],
      "stateMutability": "view",
      "type": "function"
    },
    {
      "inputs": [],
      "name": "getModuleMetadataURI",
      "outputs": [
        {
          "internalType": "string",
          "name": "",
          "type": "string"
        }
      ],
      "stateMutability": "view",
      "type": "function"
    },
    {
      "inputs": [
        {
          "internalType": "uint256",
          "name": "profileId",
          "type": "uint256"
        },
        {
          "internalType": "uint256",
          "name": "pubId",
          "type": "uint256"
        }
      ],
      "name": "getPublicationData",
      "outputs": [
        {
          "components": [
            {
              "internalType": "uint160",
              "name": "amount",
              "type": "uint160"
            },
            {
              "internalType": "uint96",
              "name": "collectLimit",
              "type": "uint96"
            },
            {
              "internalType": "address",
              "name": "currency",
              "type": "address"
            },
            {
              "internalType": "uint96",
              "name": "currentCollects",
              "type": "uint96"
            },
            {
              "internalType": "uint16",
              "name": "referralFee",
              "type": "uint16"
            },
            {
              "internalType": "bool",
              "name": "followerOnly",
              "type": "bool"
            },
            {
              "internalType": "uint72",
              "name": "endTimestamp",
              "type": "uint72"
            },
            {
              "components": [
                {
                  "internalType": "address",
                  "name": "recipient",
                  "type": "address"
                },
                {
                  "internalType": "uint16",
                  "name": "split",
                  "type": "uint16"
                }
              ],
              "internalType": "struct RecipientData[]",
              "name": "recipients",
              "type": "tuple[]"
            },
            {
              "components": [
                {
                  "internalType": "address",
                  "name": "tokenAddress",
                  "type": "address"
                },
                {
                  "internalType": "uint256",
                  "name": "minThreshold",
                  "type": "uint256"
                }
              ],
              "internalType": "struct GateParams",
              "name": "gateParams",
              "type": "tuple"
            }
          ],
          "internalType": "struct TokenGatedCollectPublicationData",
          "name": "",
          "type": "tuple"
        }
      ],
      "stateMutability": "view",
      "type": "function"
    },
    {
      "inputs": [
        {
          "internalType": "uint256",
          "name": "profileId",
          "type": "uint256"
        },
        {
          "internalType": "uint256",
          "name": "pubId",
          "type": "uint256"
        },
        {
          "internalType": "address",
          "name": "",
          "type": "address"
        },
        {
          "internalType": "bytes",
          "name": "data",
          "type": "bytes"
        }
      ],
      "name": "initializePublicationCollectModule",
      "outputs": [
        {
          "internalType": "bytes",
          "name": "",
          "type": "bytes"
        }
      ],
      "stateMutability": "nonpayable",
      "type": "function"
    },
    {
      "inputs": [],
      "name": "owner",
      "outputs": [
        {
          "internalType": "address",
          "name": "",
          "type": "address"
        }
      ],
      "stateMutability": "view",
      "type": "function"
    },
    {
      "inputs": [
        {
          "components": [
            {
              "internalType": "uint256",
              "name": "publicationCollectedProfileId",
              "type": "uint256"
            },
            {
              "internalType": "uint256",
              "name": "publicationCollectedId",
              "type": "uint256"
            },
            {
              "internalType": "uint256",
              "name": "collectorProfileId",
              "type": "uint256"
            },
            {
              "internalType": "address",
              "name": "collectorProfileOwner",
              "type": "address"
            },
            {
              "internalType": "address",
              "name": "transactionExecutor",
              "type": "address"
            },
            {
              "internalType": "uint256[]",
              "name": "referrerProfileIds",
              "type": "uint256[]"
            },
            {
              "internalType": "uint256[]",
              "name": "referrerPubIds",
              "type": "uint256[]"
            },
            {
              "internalType": "enum Types.PublicationType[]",
              "name": "referrerPubTypes",
              "type": "uint8[]"
            },
            {
              "internalType": "bytes",
              "name": "data",
              "type": "bytes"
            }
          ],
          "internalType": "struct ModuleTypes.ProcessCollectParams",
          "name": "processCollectParams",
          "type": "tuple"
        }
      ],
      "name": "processCollect",
      "outputs": [
        {
          "internalType": "bytes",
          "name": "",
          "type": "bytes"
        }
      ],
      "stateMutability": "nonpayable",
      "type": "function"
    },
    {
      "inputs": [],
      "name": "renounceOwnership",
      "outputs": [],
      "stateMutability": "nonpayable",
      "type": "function"
    },
    {
      "inputs": [
        {
          "internalType": "string",
          "name": "_metadataURI",
          "type": "string"
        }
      ],
      "name": "setModuleMetadataURI",
      "outputs": [],
      "stateMutability": "nonpayable",
      "type": "function"
    },
    {
      "inputs": [
        {
          "internalType": "bytes4",
          "name": "interfaceID",
          "type": "bytes4"
        }
      ],
      "name": "supportsInterface",
      "outputs": [
        {
          "internalType": "bool",
          "name": "",
          "type": "bool"
        }
      ],
      "stateMutability": "pure",
      "type": "function"
    },
    {
      "inputs": [
        {
          "internalType": "address",
          "name": "newOwner",
          "type": "address"
        }
      ],
      "name": "transferOwnership",
      "outputs": [],
      "stateMutability": "nonpayable",
      "type": "function"
    }
  ],
  "transactionHash": "0x3637e7ff874915d1bb999ccdece7f2881328c03c9d4bda6213f947df0889cfc5",
  "args": [
    "0xdb46d1dc155634fbc732f92e853b10b288ad5a1d",
    "0x0D90C58cBe787CD70B5Effe94Ce58185D72143fB",
    "0x1eD5983F0c883B96f7C35528a1e22EEA67DE3Ff9",
    "0xA82C8f5A03AeB2221abEdB51d9E462aFd9f63CD4"
  ],
  "numDeployments": 1,
  "solcInputHash": "8fe9380a9122633d598ec7e94332fa2e",
  "bytecode": "0x61010034620000f857601f620021c238819003918201601f19168301916001600160401b03831184841017620000fd57808492608094604052833981010312620000f8578062000053620000a89262000113565b620000616020830162000113565b6200007d6060620000756040860162000113565b940162000113565b6001600160a01b0383811660805290931660a05260c05260e052620000a23362000128565b62000128565b604051612050908162000172823960805181611cf5015260a05181818161035501526108f8015260c0518181816103ee01528181610b6b015261126a015260e051818181610bc8015261186e0152f35b600080fd5b634e487b7160e01b600052604160045260246000fd5b51906001600160a01b0382168203620000f857565b600180546001600160a01b039283166001600160a01b0319821681179092559091167f8be0079c531659141344cd1fd0a4f28419497f9722a3daafe3b4186f6b6457e0600080a356fe608080604052600436101561001357600080fd5b60003560e01c90816301ffc9a71461129957508063397a2a88146112545780633f5038921461100a578063681591c114610e7d5780636fb7166114610b52578063715018a614610af55780638da5cb5b14610acc57806391027b5314610384578063b95ddb521461033f578063ce90d52e14610258578063f2fde38b14610192578063f8d7758c146101455763fcdd2347146100ae57600080fd5b34610140576101006100c86100c236611317565b906115ae565b68ffffffffffffffffff60e06040519260018060a01b0380825116855260208201516001600160601b0380911660208701528160408401511660408701526060830151166060860152608082015116608085015261ffff60a08201511660a085015260c0810151151560c085015201511660e0820152f35b600080fd5b34610140576020610180610158366113f3565b803560009081526020818152604080832093820135835292905220546001600160a01b031690565b6040516001600160a01b039091168152f35b34610140576020366003190112610140576004356001600160a01b0381811691829003610140576101c1611669565b811561020457600154826001600160601b0360a01b821617600155167f8be0079c531659141344cd1fd0a4f28419497f9722a3daafe3b4186f6b6457e0600080a3005b60405162461bcd60e51b815260206004820152602660248201527f4f776e61626c653a206e6577206f776e657220697320746865207a65726f206160448201526564647265737360d01b6064820152608490fd5b346101405760003660031901126101405760405160025460008261027b83611530565b918282526020936001908560018216918260001461031f5750506001146102c2575b506102aa92500383611380565b6102be604051928284938452830190611425565b0390f35b84915060026000527f405787fa12a823e0f2b7631cc41b3ba8828b3321ca811111fa75cd3aa3bb5ace906000915b8583106103075750506102aa93508201018561029d565b805483890185015287945086939092019181016102f0565b60ff1916858201526102aa95151560051b850101925087915061029d9050565b34610140576000366003190112610140576040517f00000000000000000000000000000000000000000000000000000000000000006001600160a01b03168152602090f35b34610140576080366003190112610140576044356001600160a01b03811603610140576001600160401b036064351161014057366023606435011215610140576001600160401b0360643560040135116101405736602460643560040135606435010111610140577f00000000000000000000000000000000000000000000000000000000000000006001600160a01b03163303610aba5761012060643560048101358101031261014057606435602401356001600160a01b03811681036101405760446064350135906001600160601b03821682036101405761046b6064803501611465565b9161047a60846064350161159f565b9160a460643501359384151585036101405760c460643501359368ffffffffffffffffff85168503610140576001600160401b0360e4606435013511610140576024606435600401356064350101604360e4606435013560643501011215610140576104f160643560e48101350160240135611479565b946104ff6040519687611380565b60643560e48101358101602481810135808a5260208a019360048101350190910160069190911b909101604401116101405760643560e481013501604401905b60643560e481013501602481013560061b016044018210610a6e5750506040606435600481013581010360df190112610140576040519661057f88611349565b61058e61010460643501611465565b808952610124606435013560208a0152604051906370a0823160e01b6020830152306024830152602482528160608101106001600160401b03606084011117610a305760608201604052815160009283926020909101906001600160a01b03165afa6105f8611a64565b60208a015115918215610a65575b508115610a58575b50610a465760043560005260036020526040600020602435600052602052604060002060018060a01b038951166001600160601b0360a01b825416178155600160208a0151910155604051958660e08101106001600160401b0360e089011117610a305760e0870160409081526001600160a01b0387811689526001600160601b039290921660208901529085169087015261ffff9092166060860152901515608085015268ffffffffffffffffff1660a0840152600060c0840152835115159182610a03575b50506109785780516001600160a01b03161580806109ec575b81156109c8575b5080156109b5575b801561098a575b6109785760408101516001600160a01b0316806108d8575b5061073060a0926024359060043590611abe565b8051600435600090815260208181526040808320602435845282529091208054918401516001600160a01b031960a09190911b166001861b600019019093166001600160601b03861b909216919091176001600160a01b03169190911790556040818101516004356000908152602081815283822060243583529052919091206001808201805491861b600019019384166001600160601b03871b92831617905560c084015160029092018054606086015161ffff60a01b60a09190911b1693909416939091169290921761ffff60a01b1916179055608081015160043560008181526020818152604080832060243580855290835292819020600201805497909601516001600160b81b031960b89190911b1660ff60b01b95151560b01b959095166001600160b01b03909716969096179390931790935584519482015184516001600160a01b03909616865291850191909152909290917e1b01f30767efad067e528e93b9be9561450f768ae05e7fbeaddadb6a4415e191a36102be6108c436606435600401356024606435016113bc565b604051918291602083526020830190611425565b604051633f8ecfd360e21b815260048101919091529160208360248160007f00000000000000000000000000000000000000000000000000000000000000006001600160a01b03165af190811561096c5760a0936107309261093d575b50925061071c565b61095e9060203d602011610965575b6109568183611380565b810190611f65565b5085610935565b503d61094c565b6040513d6000823e3d90fd5b6040516348be0eb360e01b8152600490fd5b5068ffffffffffffffffff60a08201511680151590816109ab575b50610704565b90504211846109a5565b5061271061ffff606083015116116106fd565b905015806109d7575b846106f5565b5060408101516001600160a01b0316156109d1565b60408301516001600160a01b0316151591506106ee565b6001600160a01b03161591508115610a1e575b5084806106d5565b6001600160a01b031615905084610a16565b634e487b7160e01b600052604160045260246000fd5b604051631e448c8760e21b8152600490fd5b602091505114158961060e565b1591508a610606565b604060248360643560040135606435010301126101405760206040918251610a9581611349565b610a9e85611465565b8152610aab83860161159f565b8382015281520191019061053f565b604051632fc56e1160e21b8152600490fd5b34610140576000366003190112610140576001546040516001600160a01b039091168152602090f35b3461014057600036600319011261014057610b0e611669565b600180546001600160a01b031981169091556000906001600160a01b03167f8be0079c531659141344cd1fd0a4f28419497f9722a3daafe3b4186f6b6457e08280a3005b3461014057610b60366113f3565b6001600160a01b03907f000000000000000000000000000000000000000000000000000000000000000082163303610aba576040810135918135906020938484013583600052600386526040600020816000528652610bc26040600020611509565b838151167f000000000000000000000000000000000000000000000000000000000000000094604051906331a9108f60e11b82528560048301528982602481848b165afa801561096c578a92600091610e45575b506040516370a0823160e01b81529116600482015291829060249082905afa90811561096c57600091610e18575b5087868514159283610e0b575b505050610df95783600052600086526040600020816000528652600160406000200192835460a01c6001600160601b0393848214610de35785546001600160a01b031660019290920160a081901b6001600160a01b031916929092179095559385908160005260008952604060002084600052895260ff60026040600020015460b01c16610dd2575b50905060005260008652604060002081600052865260026040600020015460b81c9360005260008652604060002090600052855260406000205460a01c908115159283610dc6575b505050610db4578015159081610daa575b50610d9857610d4560a082018261156a565b15159050610d8a57610d56906119a4565b604051908082018281106001600160401b03821117610a3057604052600082526102be604051928284938452830190611425565b610d939061173b565b610d56565b6040516304cd703960e51b8152600490fd5b9050421183610d33565b604051635b21dfd360e11b8152600490fd5b16119050848080610d22565b610ddb92611bfe565b868481610cda565b634e487b7160e01b600052601160045260246000fd5b60405163569d45cf60e11b8152600490fd5b0151119050878781610c51565b90508781813d8311610e3e575b610e2f8183611380565b81010312610140575188610c44565b503d610e25565b83819492503d8311610e76575b610e5c8183611380565b81010312610140576024610e708b936116c1565b90610c16565b503d610e52565b3461014057602080600319360112610140576001600160401b03600435818111610140573660238201121561014057610ec09036906024816004013591016113bc565b91610ec9611669565b8251918211610a3057610edd600254611530565b601f8111610fa5575b50602090601f8311600114610f2457508192600092610f19575b5050600019600383901b1c191660019190911b17600255005b015190508280610f00565b90601f1983169360026000527f405787fa12a823e0f2b7631cc41b3ba8828b3321ca811111fa75cd3aa3bb5ace926000905b868210610f8d5750508360019510610f74575b505050811b01600255005b015160001960f88460031b161c19169055828080610f69565b80600185968294968601518155019501930190610f56565b60026000527f405787fa12a823e0f2b7631cc41b3ba8828b3321ca811111fa75cd3aa3bb5ace601f840160051c81019160208510611000575b601f0160051c01905b818110610ff45750610ee6565b60008155600101610fe7565b9091508190610fde565b346101405761115061101b36611317565b91906040516110298161132d565b6000815260006020820152600060408201526000606082015260006080820152600060a0820152600060c0820152606060e08201526101006040519161106e83611349565b6000835260006020840152015261114661108884836115ae565b60018060a01b03815116946001600160601b036020830151169160018060a01b036040820151166001600160601b0360608301511661ffff60a0840151169168ffffffffffffffffff60e060c08601511515950151169488600052600360205260406000208160005260205260406000209860005260046020526040600020906000526020526040600020956040519a6111218c61132d565b8b5260208b015260408a01526060890152608088015260a087015260c0860152611490565b60e0840152611509565b6101008201526040516020815260018060a01b0382511660208201526001600160601b03602083015116604082015260018060a01b0360408301511660608201526001600160601b03606083015116608082015261ffff60808301511660a082015260a0820151151560c082015268ffffffffffffffffff60c08301511660e082015260e0820151610140806101008401528151806101608501526020610180850193019060005b8181106112255750505060206101008495015160018060a01b038151166101208601520151908301520390f35b825180516001600160a01b0316865260209081015161ffff1681870152604090950194909201916001016111f8565b34610140576000366003190112610140576040517f00000000000000000000000000000000000000000000000000000000000000006001600160a01b03168152602090f35b34610140576020366003190112610140576001600160e01b0319906004358281169081900361014057602092637f5ab69960e11b82149283156112e4575b5050506040519015158152f35b90919250838101906a4c454e535f4d4f44554c4560a81b8252600b815261130a81611349565b51902016148280806112d7565b6040906003190112610140576004359060243590565b61012081019081106001600160401b03821117610a3057604052565b604081019081106001600160401b03821117610a3057604052565b61010081019081106001600160401b03821117610a3057604052565b90601f801991011681019081106001600160401b03821117610a3057604052565b6001600160401b038111610a3057601f01601f191660200190565b9291926113c8826113a1565b916113d66040519384611380565b829481845281830111610140578281602093846000960137010152565b6003199060208183011261014057600435916001600160401b0383116101405782610120920301126101405760040190565b919082519283825260005b848110611451575050826000602080949584010152601f8019910116010190565b602081830181015184830182015201611430565b35906001600160a01b038216820361014057565b6001600160401b038111610a305760051b60200190565b90815461149c81611479565b926040936114ad6040519182611380565b82815280946020809201926000526020600020906000935b8585106114d457505050505050565b600184819284516114e481611349565b61ffff8754858060a01b038116835260a01c16838201528152019301940193916114c5565b9060405161151681611349565b82546001600160a01b031681526001909201546020830152565b90600182811c92168015611560575b602083101461154a57565b634e487b7160e01b600052602260045260246000fd5b91607f169161153f565b903590601e198136030182121561014057018035906001600160401b03821161014057602001918160051b3603831361014057565b359061ffff8216820361014057565b60e0604092839283516115c081611364565b600093818580935282602082015282878201528260608201528260808201528260a08201528260c082015201528252816020528282209082526020522090600281519261160c84611364565b80549260018060a01b0393848116865260a01c60208601526001820154908482169086015260a01c60608501520154908116608083015261ffff8160a01c1660a083015260ff8160b01c16151560c083015260b81c60e082015290565b6001546001600160a01b0316330361167d57565b606460405162461bcd60e51b815260206004820152602060248201527f4f776e61626c653a2063616c6c6572206973206e6f7420746865206f776e65726044820152fd5b51906001600160a01b038216820361014057565b903590601e198136030182121561014057018035906001600160401b0382116101405760200191813603831361014057565b81810292918115918404141715610de357565b356001600160a01b03811681036101405790565b91908203918211610de357565b80356000908152602081815260408083208285013584529091529020549091906001600160a01b0390811690811561199e5790839182359060009282845260209184835260409485812095848801359687835285526001938382842060010154169788826101008c016117ae908d6116d5565b6117b89391611c7e565b886117c1611cde565b936127109e8f61ffff8097166117d79084611707565b048093811515956117f096611986575b5050505061172e565b97845283875282842090845286526002828420015460a01c1699829a8061182f575b5050505050505061182d93946118279161172e565b91611ec1565b565b6118409192939495969b5087611707565b049860a0880192611851848a61156a565b809391501561197257828c04948561186a575b50611812565b92957f00000000000000000000000000000000000000000000000000000000000000001692825b87811061189e5750611864565b6118a8828d61156a565b82101561195e578651906331a9108f60e11b82528260051b013560048201528381602481895afa9081156119545791888b928f948f908992611903575b506118f760806118fd9596970161171a565b90611d91565b01611891565b945050505091508381813d831161194d575b61191f8183611380565b8101031261194957906118fd888e8e6118f760808f9761193e906116c1565b9397969550506118e5565b8480fd5b503d611915565b87513d87823e3d90fd5b634e487b7160e01b85526032600452602485fd5b634e487b7160e01b82526012600452602482fd5b6118f76080611995950161171a565b8c82388e6117e7565b50509050565b80356000908152602081815260408083208285013584529091529020546001600160a01b03919082168015611a5f5761182761ffff61182d9484356000526000602052604060002060208601356000526020526001604060002001541692611a1b8185611a156101008901896116d5565b90611c7e565b612710611a32611a29611cde565b90941683611707565b04918280611a42575b505061172e565b611a5891611a526080890161171a565b87611d91565b3882611a3b565b505050565b3d15611a8f573d90611a75826113a1565b91611a836040519384611380565b82523d6000602084013e565b606090565b8051821015611aa85760209160051b010190565b634e487b7160e01b600052603260045260246000fd5b92919280518015611bf75760009260005b828110611af9575050505061271091925003611ae757565b60405163195f90f160e21b8152600490fd5b61ffff906020958287611b0c8489611a94565b5101511615611be5578287611b218489611a94565b510151168101809111610de35795836000526004928382526040806000208b600052835260002091611b538489611a94565b519280549068010000000000000000821015611bd057600196878301808355831015611bbb5750600090815282902084519101805492909401516001600160b01b03199092166001600160a01b039190911617911660a01b61ffff60a01b1617905501611acf565b603290634e487b7160e01b6000525260246000fd5b604187634e487b7160e01b6000525260246000fd5b60405163409bab8160e01b8152600490fd5b5050509050565b91808214611a5f576040516347720ebb60e01b81526004810192909252602482015290602090829060449082906001600160a01b03165afa90811561096c57600091611c5f575b5015611c4d57565b6040516322d9eef360e21b8152600490fd5b611c78915060203d602011610965576109568183611380565b38611c45565b90816040919493948101031261014057611c9781611465565b602091909101359091148015926001600160a01b0391611ccd575b505050611cbb57565b6040516346308bd560e01b8152600490fd5b819293501691161415388080611cb2565b604080516398f965d160e01b8152919080836004817f00000000000000000000000000000000000000000000000000000000000000006001600160a01b03165afa928315611d86576000918294611d36575b50509190565b9080929450813d8311611d7f575b611d4e8183611380565b81010312611d7b576020611d61826116c1565b9101519261ffff84168403611d7857503880611d30565b80fd5b8280fd5b503d611d44565b50513d6000823e3d90fd5b6040516323b872dd60e01b602082019081526001600160a01b0393841660248301529383166044820152606480820195909552938452919260a08101929091906001600160401b03841183851017610a3057611e39946000928392866040521693611dfb86611349565b602086527f5361666545524332303a206c6f772d6c6576656c2063616c6c206661696c656460c0820152519082855af1611e33611a64565b91611f7d565b8051908115918215611ea7575b505015611e4f57565b60405162461bcd60e51b815260206004820152602a60248201527f5361666545524332303a204552433230206f7065726174696f6e20646964206e6044820152691bdd081cdd58d8d9595960b21b6064820152608490fd5b611eba9250602080918301019101611f65565b3880611e46565b90918135600052602092600460205260406000206020840135600052602052611eed6040600020611490565b9182519460005b868110611f045750505050505050565b80612710611f2561ffff85611f1b6001968b611a94565b5101511686611707565b0480611f33575b5001611ef4565b611f5f90838060a01b03611f4960808b0161171a565b81611f54868c611a94565b515116918916611d91565b38611f2c565b90816020910312610140575180151581036101405790565b91929015611fdf5750815115611f91575090565b3b15611f9a5790565b60405162461bcd60e51b815260206004820152601d60248201527f416464726573733a2063616c6c20746f206e6f6e2d636f6e74726163740000006044820152606490fd5b825190915015611ff25750805190602001fd5b60405162461bcd60e51b815260206004820152908190612016906024830190611425565b0390fdfea26469706673582212209cc59dc1e279aefa796ada36522fa14eb477362ed74a5591e76096e24596591964736f6c63430008170033",
  "devdoc": {
    "kind": "dev",
    "methods": {
      "calculateFee((uint256,uint256,uint256,address,address,uint256[],uint256[],uint8[],bytes))": {
        "details": "Override this function to use a different formula for the fee.",
        "returns": {
          "_0": "The collect fee of the specified publication."
        }
      },
      "getBasePublicationData(uint256,uint256)": {
        "params": {
          "profileId": "The token ID of the profile mapped to the publication to query.",
          "pubId": "The publication ID of the publication to query."
        },
        "returns": {
          "_0": "The BaseProfilePublicationData struct mapped to that publication."
        }
      },
      "getPublicationData(uint256,uint256)": {
        "params": {
          "profileId": "The token ID of the profile mapped to the publication to query.",
          "pubId": "The publication ID of the publication to query."
        },
        "returns": {
          "_0": "The TokenGatedCollectPublicationData struct mapped to that publication."
        }
      },
      "owner()": {
        "details": "Returns the address of the current owner."
      },
      "processCollect((uint256,uint256,uint256,address,address,uint256[],uint256[],uint8[],bytes))": {
        "params": {
          "processCollectParams": "Collect action parameters (see ModuleTypes.ProcessCollectParams struct)"
        },
        "returns": {
          "_0": "bytes Any custom ABI-encoded data. This will be a LensHub event params that can be used by indexers or UIs."
        }
      },
      "renounceOwnership()": {
        "details": "Leaves the contract without owner. It will not be possible to call `onlyOwner` functions. Can only be called by the current owner. NOTE: Renouncing ownership will leave the contract without an owner, thereby disabling any functionality that is only available to the owner."
      },
      "transferOwnership(address)": {
        "details": "Transfers ownership of the contract to a new account (`newOwner`). Can only be called by the current owner."
      }
    },
    "version": 1
  },
  "userdoc": {
    "kind": "user",
    "methods": {
      "calculateFee((uint256,uint256,uint256,address,address,uint256[],uint256[],uint8[],bytes))": {
        "notice": "Calculates and returns the collect fee of a publication."
      },
      "getBasePublicationData(uint256,uint256)": {
        "notice": "Returns the Base publication data for a given publication, or an empty struct if that publication was not initialized with this module."
      },
      "getModuleMetadataURI()": {
        "notice": "Human-readable description of the module"
      },
      "getPublicationData(uint256,uint256)": {
        "notice": "Returns the publication data for a given publication, or an empty struct if that publication was not initialized with this module."
      },
      "processCollect((uint256,uint256,uint256,address,address,uint256[],uint256[],uint8[],bytes))": {
        "notice": "Processes a collect by:  1. Validating that collect action meets all needed criteria  2. Processing the collect action either with or without referral"
      }
    },
    "version": 1
  },
  "storageLayout": {
    "storage": [
      {
        "astId": 3453,
        "contract": "contracts/TokenGatedCollectModule.sol:TokenGatedCollectModule",
        "label": "_dataByPublicationByProfile",
        "offset": 0,
        "slot": "0",
        "type": "t_mapping(t_uint256,t_mapping(t_uint256,t_struct(BaseProfilePublicationData)4130_storage))"
      },
      {
        "astId": 7,
        "contract": "contracts/TokenGatedCollectModule.sol:TokenGatedCollectModule",
        "label": "_owner",
        "offset": 0,
        "slot": "1",
        "type": "t_address"
      },
      {
        "astId": 3388,
        "contract": "contracts/TokenGatedCollectModule.sol:TokenGatedCollectModule",
        "label": "metadataURI",
        "offset": 0,
        "slot": "2",
        "type": "t_string_storage"
      },
      {
        "astId": 1226,
        "contract": "contracts/TokenGatedCollectModule.sol:TokenGatedCollectModule",
        "label": "_gateParams",
        "offset": 0,
        "slot": "3",
        "type": "t_mapping(t_uint256,t_mapping(t_uint256,t_struct(GateParams)1165_storage))"
      },
      {
        "astId": 1234,
        "contract": "contracts/TokenGatedCollectModule.sol:TokenGatedCollectModule",
        "label": "_recipients",
        "offset": 0,
        "slot": "4",
        "type": "t_mapping(t_uint256,t_mapping(t_uint256,t_array(t_struct(RecipientData)1159_storage)dyn_storage))"
      }
    ],
    "types": {
      "t_address": {
        "encoding": "inplace",
        "label": "address",
        "numberOfBytes": "20"
      },
      "t_array(t_struct(RecipientData)1159_storage)dyn_storage": {
        "base": "t_struct(RecipientData)1159_storage",
        "encoding": "dynamic_array",
        "label": "struct RecipientData[]",
        "numberOfBytes": "32"
      },
      "t_bool": {
        "encoding": "inplace",
        "label": "bool",
        "numberOfBytes": "1"
      },
      "t_mapping(t_uint256,t_array(t_struct(RecipientData)1159_storage)dyn_storage)": {
        "encoding": "mapping",
        "key": "t_uint256",
        "label": "mapping(uint256 => struct RecipientData[])",
        "numberOfBytes": "32",
        "value": "t_array(t_struct(RecipientData)1159_storage)dyn_storage"
      },
      "t_mapping(t_uint256,t_mapping(t_uint256,t_array(t_struct(RecipientData)1159_storage)dyn_storage))": {
        "encoding": "mapping",
        "key": "t_uint256",
        "label": "mapping(uint256 => mapping(uint256 => struct RecipientData[]))",
        "numberOfBytes": "32",
        "value": "t_mapping(t_uint256,t_array(t_struct(RecipientData)1159_storage)dyn_storage)"
      },
      "t_mapping(t_uint256,t_mapping(t_uint256,t_struct(BaseProfilePublicationData)4130_storage))": {
        "encoding": "mapping",
        "key": "t_uint256",
        "label": "mapping(uint256 => mapping(uint256 => struct BaseProfilePublicationData))",
        "numberOfBytes": "32",
        "value": "t_mapping(t_uint256,t_struct(BaseProfilePublicationData)4130_storage)"
      },
      "t_mapping(t_uint256,t_mapping(t_uint256,t_struct(GateParams)1165_storage))": {
        "encoding": "mapping",
        "key": "t_uint256",
        "label": "mapping(uint256 => mapping(uint256 => struct GateParams))",
        "numberOfBytes": "32",
        "value": "t_mapping(t_uint256,t_struct(GateParams)1165_storage)"
      },
      "t_mapping(t_uint256,t_struct(BaseProfilePublicationData)4130_storage)": {
        "encoding": "mapping",
        "key": "t_uint256",
        "label": "mapping(uint256 => struct BaseProfilePublicationData)",
        "numberOfBytes": "32",
        "value": "t_struct(BaseProfilePublicationData)4130_storage"
      },
      "t_mapping(t_uint256,t_struct(GateParams)1165_storage)": {
        "encoding": "mapping",
        "key": "t_uint256",
        "label": "mapping(uint256 => struct GateParams)",
        "numberOfBytes": "32",
        "value": "t_struct(GateParams)1165_storage"
      },
      "t_string_storage": {
        "encoding": "bytes",
        "label": "string",
        "numberOfBytes": "32"
      },
      "t_struct(BaseProfilePublicationData)4130_storage": {
        "encoding": "inplace",
        "label": "struct BaseProfilePublicationData",
        "members": [
          {
            "astId": 4115,
            "contract": "contracts/TokenGatedCollectModule.sol:TokenGatedCollectModule",
            "label": "amount",
            "offset": 0,
            "slot": "0",
            "type": "t_uint160"
          },
          {
            "astId": 4117,
            "contract": "contracts/TokenGatedCollectModule.sol:TokenGatedCollectModule",
            "label": "collectLimit",
            "offset": 20,
            "slot": "0",
            "type": "t_uint96"
          },
          {
            "astId": 4119,
            "contract": "contracts/TokenGatedCollectModule.sol:TokenGatedCollectModule",
            "label": "currency",
            "offset": 0,
            "slot": "1",
            "type": "t_address"
          },
          {
            "astId": 4121,
            "contract": "contracts/TokenGatedCollectModule.sol:TokenGatedCollectModule",
            "label": "currentCollects",
            "offset": 20,
            "slot": "1",
            "type": "t_uint96"
          },
          {
            "astId": 4123,
            "contract": "contracts/TokenGatedCollectModule.sol:TokenGatedCollectModule",
            "label": "recipient",
            "offset": 0,
            "slot": "2",
            "type": "t_address"
          },
          {
            "astId": 4125,
            "contract": "contracts/TokenGatedCollectModule.sol:TokenGatedCollectModule",
            "label": "referralFee",
            "offset": 20,
            "slot": "2",
            "type": "t_uint16"
          },
          {
            "astId": 4127,
            "contract": "contracts/TokenGatedCollectModule.sol:TokenGatedCollectModule",
            "label": "followerOnly",
            "offset": 22,
            "slot": "2",
            "type": "t_bool"
          },
          {
            "astId": 4129,
            "contract": "contracts/TokenGatedCollectModule.sol:TokenGatedCollectModule",
            "label": "endTimestamp",
            "offset": 23,
            "slot": "2",
            "type": "t_uint72"
          }
        ],
        "numberOfBytes": "96"
      },
      "t_struct(GateParams)1165_storage": {
        "encoding": "inplace",
        "label": "struct GateParams",
        "members": [
          {
            "astId": 1162,
            "contract": "contracts/TokenGatedCollectModule.sol:TokenGatedCollectModule",
            "label": "tokenAddress",
            "offset": 0,
            "slot": "0",
            "type": "t_address"
          },
          {
            "astId": 1164,
            "contract": "contracts/TokenGatedCollectModule.sol:TokenGatedCollectModule",
            "label": "minThreshold",
            "offset": 0,
            "slot": "1",
            "type": "t_uint256"
          }
        ],
        "numberOfBytes": "64"
      },
      "t_struct(RecipientData)1159_storage": {
        "encoding": "inplace",
        "label": "struct RecipientData",
        "members": [
          {
            "astId": 1156,
            "contract": "contracts/TokenGatedCollectModule.sol:TokenGatedCollectModule",
            "label": "recipient",
            "offset": 0,
            "slot": "0",
            "type": "t_address"
          },
          {
            "astId": 1158,
            "contract": "contracts/TokenGatedCollectModule.sol:TokenGatedCollectModule",
            "label": "split",
            "offset": 20,
            "slot": "0",
            "type": "t_uint16"
          }
        ],
        "numberOfBytes": "32"
      },
      "t_uint16": {
        "encoding": "inplace",
        "label": "uint16",
        "numberOfBytes": "2"
      },
      "t_uint160": {
        "encoding": "inplace",
        "label": "uint160",
        "numberOfBytes": "20"
      },
      "t_uint256": {
        "encoding": "inplace",
        "label": "uint256",
        "numberOfBytes": "32"
      },
      "t_uint72": {
        "encoding": "inplace",
        "label": "uint72",
        "numberOfBytes": "9"
      },
      "t_uint96": {
        "encoding": "inplace",
        "label": "uint96",
        "numberOfBytes": "12"
      }
    }
  }
}